{
	"contracts/SimpleLibrary.sol": {
		"SimpleLibrary": {
			"abi": [
				{
					"inputs": [],
					"stateMutability": "nonpayable",
					"type": "constructor"
				},
				{
					"anonymous": false,
					"inputs": [
						{
							"indexed": true,
							"internalType": "string",
							"name": "isbn",
							"type": "string"
						},
						{
							"indexed": false,
							"internalType": "string",
							"name": "title",
							"type": "string"
						},
						{
							"indexed": false,
							"internalType": "uint256",
							"name": "year",
							"type": "uint256"
						},
						{
							"indexed": false,
							"internalType": "string",
							"name": "author",
							"type": "string"
						}
					],
					"name": "BookAdded",
					"type": "event"
				},
				{
					"anonymous": false,
					"inputs": [
						{
							"indexed": true,
							"internalType": "string",
							"name": "isbn",
							"type": "string"
						}
					],
					"name": "BookDeleted",
					"type": "event"
				},
				{
					"anonymous": false,
					"inputs": [
						{
							"indexed": true,
							"internalType": "string",
							"name": "isbn",
							"type": "string"
						},
						{
							"indexed": false,
							"internalType": "string",
							"name": "title",
							"type": "string"
						},
						{
							"indexed": false,
							"internalType": "uint256",
							"name": "year",
							"type": "uint256"
						},
						{
							"indexed": false,
							"internalType": "string",
							"name": "author",
							"type": "string"
						}
					],
					"name": "BookUpdated",
					"type": "event"
				},
				{
					"inputs": [
						{
							"internalType": "string",
							"name": "_isbn",
							"type": "string"
						},
						{
							"internalType": "string",
							"name": "_title",
							"type": "string"
						},
						{
							"internalType": "uint256",
							"name": "_year",
							"type": "uint256"
						},
						{
							"internalType": "string",
							"name": "_author",
							"type": "string"
						}
					],
					"name": "addBook",
					"outputs": [],
					"stateMutability": "nonpayable",
					"type": "function"
				},
				{
					"inputs": [
						{
							"internalType": "string",
							"name": "_isbn",
							"type": "string"
						}
					],
					"name": "deleteBook",
					"outputs": [],
					"stateMutability": "nonpayable",
					"type": "function"
				},
				{
					"inputs": [
						{
							"internalType": "string",
							"name": "_isbn",
							"type": "string"
						}
					],
					"name": "getBookByISBN",
					"outputs": [
						{
							"internalType": "string",
							"name": "",
							"type": "string"
						},
						{
							"internalType": "string",
							"name": "",
							"type": "string"
						},
						{
							"internalType": "uint256",
							"name": "",
							"type": "uint256"
						},
						{
							"internalType": "string",
							"name": "",
							"type": "string"
						}
					],
					"stateMutability": "view",
					"type": "function"
				},
				{
					"inputs": [
						{
							"internalType": "string",
							"name": "_isbn",
							"type": "string"
						},
						{
							"internalType": "string",
							"name": "_title",
							"type": "string"
						},
						{
							"internalType": "uint256",
							"name": "_year",
							"type": "uint256"
						},
						{
							"internalType": "string",
							"name": "_author",
							"type": "string"
						}
					],
					"name": "updateBook",
					"outputs": [],
					"stateMutability": "nonpayable",
					"type": "function"
				}
			],
			"devdoc": {
				"kind": "dev",
				"methods": {},
				"version": 1
			},
			"evm": {
				"assembly": "    /* \"contracts/SimpleLibrary.sol\":60:2622  contract SimpleLibrary {... */\n  mstore(0x40, 0x80)\n    /* \"contracts/SimpleLibrary.sol\":680:731  constructor() {... */\n  callvalue\n  dup1\n  iszero\n  tag_1\n  jumpi\n  0x00\n  dup1\n  revert\ntag_1:\n  pop\n    /* \"contracts/SimpleLibrary.sol\":713:723  msg.sender */\n  caller\n    /* \"contracts/SimpleLibrary.sol\":705:710  admin */\n  0x01\n  0x00\n    /* \"contracts/SimpleLibrary.sol\":705:723  admin = msg.sender */\n  0x0100\n  exp\n  dup2\n  sload\n  dup2\n  0xffffffffffffffffffffffffffffffffffffffff\n  mul\n  not\n  and\n  swap1\n  dup4\n  0xffffffffffffffffffffffffffffffffffffffff\n  and\n  mul\n  or\n  swap1\n  sstore\n  pop\n    /* \"contracts/SimpleLibrary.sol\":60:2622  contract SimpleLibrary {... */\n  dataSize(sub_0)\n  dup1\n  dataOffset(sub_0)\n  0x00\n  codecopy\n  0x00\n  return\nstop\n\nsub_0: assembly {\n        /* \"contracts/SimpleLibrary.sol\":60:2622  contract SimpleLibrary {... */\n      mstore(0x40, 0x80)\n      callvalue\n      dup1\n      iszero\n      tag_1\n      jumpi\n      0x00\n      dup1\n      revert\n    tag_1:\n      pop\n      jumpi(tag_2, lt(calldatasize, 0x04))\n      shr(0xe0, calldataload(0x00))\n      dup1\n      0x233d280c\n      eq\n      tag_3\n      jumpi\n      dup1\n      0x598e1455\n      eq\n      tag_4\n      jumpi\n      dup1\n      0x8cd35f49\n      eq\n      tag_5\n      jumpi\n      dup1\n      0xf9637523\n      eq\n      tag_6\n      jumpi\n    tag_2:\n      0x00\n      dup1\n      revert\n        /* \"contracts/SimpleLibrary.sol\":2231:2619  function getBookByISBN(string calldata _isbn) public view returns (string memory, string memory, uint256, string memory) {... */\n    tag_3:\n      tag_7\n      0x04\n      dup1\n      calldatasize\n      sub\n      dup2\n      add\n      swap1\n      tag_8\n      swap2\n      swap1\n      tag_9\n      jump\t// in\n    tag_8:\n      tag_10\n      jump\t// in\n    tag_7:\n      mload(0x40)\n      tag_11\n      swap5\n      swap4\n      swap3\n      swap2\n      swap1\n      tag_12\n      jump\t// in\n    tag_11:\n      mload(0x40)\n      dup1\n      swap2\n      sub\n      swap1\n      return\n        /* \"contracts/SimpleLibrary.sol\":771:1369  function addBook(string calldata _isbn, string calldata _title, uint256 _year, string calldata _author) public onlyAdmin {... */\n    tag_4:\n      tag_13\n      0x04\n      dup1\n      calldatasize\n      sub\n      dup2\n      add\n      swap1\n      tag_14\n      swap2\n      swap1\n      tag_15\n      jump\t// in\n    tag_14:\n      tag_16\n      jump\t// in\n    tag_13:\n      stop\n        /* \"contracts/SimpleLibrary.sol\":1417:1828  function updateBook(string calldata _isbn, string calldata _title, uint256 _year, string calldata _author) public onlyAdmin {... */\n    tag_5:\n      tag_17\n      0x04\n      dup1\n      calldatasize\n      sub\n      dup2\n      add\n      swap1\n      tag_18\n      swap2\n      swap1\n      tag_15\n      jump\t// in\n    tag_18:\n      tag_19\n      jump\t// in\n    tag_17:\n      stop\n        /* \"contracts/SimpleLibrary.sol\":1882:2174  function deleteBook(string calldata _isbn) public onlyAdmin {... */\n    tag_6:\n      tag_20\n      0x04\n      dup1\n      calldatasize\n      sub\n      dup2\n      add\n      swap1\n      tag_21\n      swap2\n      swap1\n      tag_9\n      jump\t// in\n    tag_21:\n      tag_22\n      jump\t// in\n    tag_20:\n      stop\n        /* \"contracts/SimpleLibrary.sol\":2231:2619  function getBookByISBN(string calldata _isbn) public view returns (string memory, string memory, uint256, string memory) {... */\n    tag_10:\n        /* \"contracts/SimpleLibrary.sol\":2298:2311  string memory */\n      0x60\n        /* \"contracts/SimpleLibrary.sol\":2313:2326  string memory */\n      dup1\n        /* \"contracts/SimpleLibrary.sol\":2328:2335  uint256 */\n      0x00\n        /* \"contracts/SimpleLibrary.sol\":2337:2350  string memory */\n      0x60\n        /* \"contracts/SimpleLibrary.sol\":2393:2394  0 */\n      0x00\n        /* \"contracts/SimpleLibrary.sol\":2377:2382  _isbn */\n      dup7\n      dup7\n        /* \"contracts/SimpleLibrary.sol\":2371:2390  bytes(_isbn).length */\n      swap1\n      pop\n        /* \"contracts/SimpleLibrary.sol\":2371:2394  bytes(_isbn).length > 0 */\n      gt\n        /* \"contracts/SimpleLibrary.sol\":2363:2422  require(bytes(_isbn).length > 0, \"ISBN tidak boleh kosong\") */\n      tag_24\n      jumpi\n      mload(0x40)\n      0x08c379a000000000000000000000000000000000000000000000000000000000\n      dup2\n      mstore\n      0x04\n      add\n      tag_25\n      swap1\n      tag_26\n      jump\t// in\n    tag_25:\n      mload(0x40)\n      dup1\n      swap2\n      sub\n      swap1\n      revert\n    tag_24:\n        /* \"contracts/SimpleLibrary.sol\":2435:2451  Book memory book */\n      0x00\n        /* \"contracts/SimpleLibrary.sol\":2454:2459  books */\n      dup1\n        /* \"contracts/SimpleLibrary.sol\":2460:2465  _isbn */\n      dup8\n      dup8\n        /* \"contracts/SimpleLibrary.sol\":2454:2466  books[_isbn] */\n      mload(0x40)\n      tag_27\n      swap3\n      swap2\n      swap1\n      tag_28\n      jump\t// in\n    tag_27:\n      swap1\n      dup2\n      mstore\n      0x20\n      add\n      mload(0x40)\n      dup1\n      swap2\n      sub\n      swap1\n      keccak256\n        /* \"contracts/SimpleLibrary.sol\":2435:2466  Book memory book = books[_isbn] */\n      mload(0x40)\n      dup1\n      0x80\n      add\n      0x40\n      mstore\n      swap1\n      dup2\n      0x00\n      dup3\n      add\n      dup1\n      sload\n      tag_29\n      swap1\n      tag_30\n      jump\t// in\n    tag_29:\n      dup1\n      0x1f\n      add\n      0x20\n      dup1\n      swap2\n      div\n      mul\n      0x20\n      add\n      mload(0x40)\n      swap1\n      dup2\n      add\n      0x40\n      mstore\n      dup1\n      swap3\n      swap2\n      swap1\n      dup2\n      dup2\n      mstore\n      0x20\n      add\n      dup3\n      dup1\n      sload\n      tag_31\n      swap1\n      tag_30\n      jump\t// in\n    tag_31:\n      dup1\n      iszero\n      tag_32\n      jumpi\n      dup1\n      0x1f\n      lt\n      tag_33\n      jumpi\n      0x0100\n      dup1\n      dup4\n      sload\n      div\n      mul\n      dup4\n      mstore\n      swap2\n      0x20\n      add\n      swap2\n      jump(tag_32)\n    tag_33:\n      dup3\n      add\n      swap2\n      swap1\n      0x00\n      mstore\n      keccak256(0x00, 0x20)\n      swap1\n    tag_34:\n      dup2\n      sload\n      dup2\n      mstore\n      swap1\n      0x01\n      add\n      swap1\n      0x20\n      add\n      dup1\n      dup4\n      gt\n      tag_34\n      jumpi\n      dup3\n      swap1\n      sub\n      0x1f\n      and\n      dup3\n      add\n      swap2\n    tag_32:\n      pop\n      pop\n      pop\n      pop\n      pop\n      dup2\n      mstore\n      0x20\n      add\n      0x01\n      dup3\n      add\n      dup1\n      sload\n      tag_35\n      swap1\n      tag_30\n      jump\t// in\n    tag_35:\n      dup1\n      0x1f\n      add\n      0x20\n      dup1\n      swap2\n      div\n      mul\n      0x20\n      add\n      mload(0x40)\n      swap1\n      dup2\n      add\n      0x40\n      mstore\n      dup1\n      swap3\n      swap2\n      swap1\n      dup2\n      dup2\n      mstore\n      0x20\n      add\n      dup3\n      dup1\n      sload\n      tag_36\n      swap1\n      tag_30\n      jump\t// in\n    tag_36:\n      dup1\n      iszero\n      tag_37\n      jumpi\n      dup1\n      0x1f\n      lt\n      tag_38\n      jumpi\n      0x0100\n      dup1\n      dup4\n      sload\n      div\n      mul\n      dup4\n      mstore\n      swap2\n      0x20\n      add\n      swap2\n      jump(tag_37)\n    tag_38:\n      dup3\n      add\n      swap2\n      swap1\n      0x00\n      mstore\n      keccak256(0x00, 0x20)\n      swap1\n    tag_39:\n      dup2\n      sload\n      dup2\n      mstore\n      swap1\n      0x01\n      add\n      swap1\n      0x20\n      add\n      dup1\n      dup4\n      gt\n      tag_39\n      jumpi\n      dup3\n      swap1\n      sub\n      0x1f\n      and\n      dup3\n      add\n      swap2\n    tag_37:\n      pop\n      pop\n      pop\n      pop\n      pop\n      dup2\n      mstore\n      0x20\n      add\n      0x02\n      dup3\n      add\n      sload\n      dup2\n      mstore\n      0x20\n      add\n      0x03\n      dup3\n      add\n      dup1\n      sload\n      tag_40\n      swap1\n      tag_30\n      jump\t// in\n    tag_40:\n      dup1\n      0x1f\n      add\n      0x20\n      dup1\n      swap2\n      div\n      mul\n      0x20\n      add\n      mload(0x40)\n      swap1\n      dup2\n      add\n      0x40\n      mstore\n      dup1\n      swap3\n      swap2\n      swap1\n      dup2\n      dup2\n      mstore\n      0x20\n      add\n      dup3\n      dup1\n      sload\n      tag_41\n      swap1\n      tag_30\n      jump\t// in\n    tag_41:\n      dup1\n      iszero\n      tag_42\n      jumpi\n      dup1\n      0x1f\n      lt\n      tag_43\n      jumpi\n      0x0100\n      dup1\n      dup4\n      sload\n      div\n      mul\n      dup4\n      mstore\n      swap2\n      0x20\n      add\n      swap2\n      jump(tag_42)\n    tag_43:\n      dup3\n      add\n      swap2\n      swap1\n      0x00\n      mstore\n      keccak256(0x00, 0x20)\n      swap1\n    tag_44:\n      dup2\n      sload\n      dup2\n      mstore\n      swap1\n      0x01\n      add\n      swap1\n      0x20\n      add\n      dup1\n      dup4\n      gt\n      tag_44\n      jumpi\n      dup3\n      swap1\n      sub\n      0x1f\n      and\n      dup3\n      add\n      swap2\n    tag_42:\n      pop\n      pop\n      pop\n      pop\n      pop\n      dup2\n      mstore\n      pop\n      pop\n      swap1\n      pop\n        /* \"contracts/SimpleLibrary.sol\":2497:2498  0 */\n      0x00\n        /* \"contracts/SimpleLibrary.sol\":2485:2489  book */\n      dup2\n        /* \"contracts/SimpleLibrary.sol\":2485:2494  book.year */\n      0x40\n      add\n      mload\n        /* \"contracts/SimpleLibrary.sol\":2485:2498  book.year > 0 */\n      gt\n        /* \"contracts/SimpleLibrary.sol\":2477:2544  require(book.year > 0, \"Buku dengan ISBN tersebut tidak ditemukan\") */\n      tag_45\n      jumpi\n      mload(0x40)\n      0x08c379a000000000000000000000000000000000000000000000000000000000\n      dup2\n      mstore\n      0x04\n      add\n      tag_46\n      swap1\n      tag_47\n      jump\t// in\n    tag_46:\n      mload(0x40)\n      dup1\n      swap2\n      sub\n      swap1\n      revert\n    tag_45:\n        /* \"contracts/SimpleLibrary.sol\":2565:2569  book */\n      dup1\n        /* \"contracts/SimpleLibrary.sol\":2565:2574  book.isbn */\n      0x00\n      add\n      mload\n        /* \"contracts/SimpleLibrary.sol\":2576:2580  book */\n      dup2\n        /* \"contracts/SimpleLibrary.sol\":2576:2586  book.title */\n      0x20\n      add\n      mload\n        /* \"contracts/SimpleLibrary.sol\":2588:2592  book */\n      dup3\n        /* \"contracts/SimpleLibrary.sol\":2588:2597  book.year */\n      0x40\n      add\n      mload\n        /* \"contracts/SimpleLibrary.sol\":2599:2603  book */\n      dup4\n        /* \"contracts/SimpleLibrary.sol\":2599:2610  book.author */\n      0x60\n      add\n      mload\n        /* \"contracts/SimpleLibrary.sol\":2557:2611  return (book.isbn, book.title, book.year, book.author) */\n      swap5\n      pop\n      swap5\n      pop\n      swap5\n      pop\n      swap5\n      pop\n      pop\n        /* \"contracts/SimpleLibrary.sol\":2231:2619  function getBookByISBN(string calldata _isbn) public view returns (string memory, string memory, uint256, string memory) {... */\n      swap3\n      swap6\n      swap2\n      swap5\n      pop\n      swap3\n      pop\n      jump\t// out\n        /* \"contracts/SimpleLibrary.sol\":771:1369  function addBook(string calldata _isbn, string calldata _title, uint256 _year, string calldata _author) public onlyAdmin {... */\n    tag_16:\n        /* \"contracts/SimpleLibrary.sol\":606:611  admin */\n      0x01\n      0x00\n      swap1\n      sload\n      swap1\n      0x0100\n      exp\n      swap1\n      div\n      0xffffffffffffffffffffffffffffffffffffffff\n      and\n        /* \"contracts/SimpleLibrary.sol\":592:611  msg.sender == admin */\n      0xffffffffffffffffffffffffffffffffffffffff\n      and\n        /* \"contracts/SimpleLibrary.sol\":592:602  msg.sender */\n      caller\n        /* \"contracts/SimpleLibrary.sol\":592:611  msg.sender == admin */\n      0xffffffffffffffffffffffffffffffffffffffff\n      and\n      eq\n        /* \"contracts/SimpleLibrary.sol\":584:652  require(msg.sender == admin, \"Hanya admin yang dapat melakukan ini\") */\n      tag_49\n      jumpi\n      mload(0x40)\n      0x08c379a000000000000000000000000000000000000000000000000000000000\n      dup2\n      mstore\n      0x04\n      add\n      tag_50\n      swap1\n      tag_51\n      jump\t// in\n    tag_50:\n      mload(0x40)\n      dup1\n      swap2\n      sub\n      swap1\n      revert\n    tag_49:\n        /* \"contracts/SimpleLibrary.sol\":933:934  0 */\n      0x00\n        /* \"contracts/SimpleLibrary.sol\":917:922  _isbn */\n      dup8\n      dup8\n        /* \"contracts/SimpleLibrary.sol\":911:930  bytes(_isbn).length */\n      swap1\n      pop\n        /* \"contracts/SimpleLibrary.sol\":911:934  bytes(_isbn).length > 0 */\n      gt\n        /* \"contracts/SimpleLibrary.sol\":903:962  require(bytes(_isbn).length > 0, \"ISBN tidak boleh kosong\") */\n      tag_53\n      jumpi\n      mload(0x40)\n      0x08c379a000000000000000000000000000000000000000000000000000000000\n      dup2\n      mstore\n      0x04\n      add\n      tag_54\n      swap1\n      tag_26\n      jump\t// in\n    tag_54:\n      mload(0x40)\n      dup1\n      swap2\n      sub\n      swap1\n      revert\n    tag_53:\n        /* \"contracts/SimpleLibrary.sol\":1004:1005  0 */\n      0x00\n        /* \"contracts/SimpleLibrary.sol\":987:993  _title */\n      dup6\n      dup6\n        /* \"contracts/SimpleLibrary.sol\":981:1001  bytes(_title).length */\n      swap1\n      pop\n        /* \"contracts/SimpleLibrary.sol\":981:1005  bytes(_title).length > 0 */\n      gt\n        /* \"contracts/SimpleLibrary.sol\":973:1034  require(bytes(_title).length > 0, \"Judul tidak boleh kosong\") */\n      tag_55\n      jumpi\n      mload(0x40)\n      0x08c379a000000000000000000000000000000000000000000000000000000000\n      dup2\n      mstore\n      0x04\n      add\n      tag_56\n      swap1\n      tag_57\n      jump\t// in\n    tag_56:\n      mload(0x40)\n      dup1\n      swap2\n      sub\n      swap1\n      revert\n    tag_55:\n        /* \"contracts/SimpleLibrary.sol\":1061:1062  0 */\n      0x00\n        /* \"contracts/SimpleLibrary.sol\":1053:1058  _year */\n      dup4\n        /* \"contracts/SimpleLibrary.sol\":1053:1062  _year > 0 */\n      gt\n        /* \"contracts/SimpleLibrary.sol\":1045:1091  require(_year > 0, \"Tahun harus lebih dari 0\") */\n      tag_58\n      jumpi\n      mload(0x40)\n      0x08c379a000000000000000000000000000000000000000000000000000000000\n      dup2\n      mstore\n      0x04\n      add\n      tag_59\n      swap1\n      tag_60\n      jump\t// in\n    tag_59:\n      mload(0x40)\n      dup1\n      swap2\n      sub\n      swap1\n      revert\n    tag_58:\n        /* \"contracts/SimpleLibrary.sol\":1161:1162  0 */\n      0x00\n        /* \"contracts/SimpleLibrary.sol\":1140:1145  books */\n      dup1\n        /* \"contracts/SimpleLibrary.sol\":1146:1151  _isbn */\n      dup9\n      dup9\n        /* \"contracts/SimpleLibrary.sol\":1140:1152  books[_isbn] */\n      mload(0x40)\n      tag_61\n      swap3\n      swap2\n      swap1\n      tag_28\n      jump\t// in\n    tag_61:\n      swap1\n      dup2\n      mstore\n      0x20\n      add\n      mload(0x40)\n      dup1\n      swap2\n      sub\n      swap1\n      keccak256\n        /* \"contracts/SimpleLibrary.sol\":1140:1157  books[_isbn].year */\n      0x02\n      add\n      sload\n        /* \"contracts/SimpleLibrary.sol\":1140:1162  books[_isbn].year == 0 */\n      eq\n        /* \"contracts/SimpleLibrary.sol\":1132:1202  require(books[_isbn].year == 0, \"Buku dengan ISBN tersebut sudah ada\") */\n      tag_62\n      jumpi\n      mload(0x40)\n      0x08c379a000000000000000000000000000000000000000000000000000000000\n      dup2\n      mstore\n      0x04\n      add\n      tag_63\n      swap1\n      tag_64\n      jump\t// in\n    tag_63:\n      mload(0x40)\n      dup1\n      swap2\n      sub\n      swap1\n      revert\n    tag_62:\n        /* \"contracts/SimpleLibrary.sol\":1215:1234  Book memory newBook */\n      0x00\n        /* \"contracts/SimpleLibrary.sol\":1237:1272  Book(_isbn, _title, _year, _author) */\n      mload(0x40)\n      dup1\n      0x80\n      add\n      0x40\n      mstore\n      dup1\n        /* \"contracts/SimpleLibrary.sol\":1242:1247  _isbn */\n      dup10\n      dup10\n        /* \"contracts/SimpleLibrary.sol\":1237:1272  Book(_isbn, _title, _year, _author) */\n      dup1\n      dup1\n      0x1f\n      add\n      0x20\n      dup1\n      swap2\n      div\n      mul\n      0x20\n      add\n      mload(0x40)\n      swap1\n      dup2\n      add\n      0x40\n      mstore\n      dup1\n      swap4\n      swap3\n      swap2\n      swap1\n      dup2\n      dup2\n      mstore\n      0x20\n      add\n      dup4\n      dup4\n      dup1\n      dup3\n      dup5\n      calldatacopy\n      0x00\n      dup2\n      dup5\n      add\n      mstore\n      not(0x1f)\n      0x1f\n      dup3\n      add\n      and\n      swap1\n      pop\n      dup1\n      dup4\n      add\n      swap3\n      pop\n      pop\n      pop\n      pop\n      pop\n      pop\n      pop\n      dup2\n      mstore\n      0x20\n      add\n        /* \"contracts/SimpleLibrary.sol\":1249:1255  _title */\n      dup8\n      dup8\n        /* \"contracts/SimpleLibrary.sol\":1237:1272  Book(_isbn, _title, _year, _author) */\n      dup1\n      dup1\n      0x1f\n      add\n      0x20\n      dup1\n      swap2\n      div\n      mul\n      0x20\n      add\n      mload(0x40)\n      swap1\n      dup2\n      add\n      0x40\n      mstore\n      dup1\n      swap4\n      swap3\n      swap2\n      swap1\n      dup2\n      dup2\n      mstore\n      0x20\n      add\n      dup4\n      dup4\n      dup1\n      dup3\n      dup5\n      calldatacopy\n      0x00\n      dup2\n      dup5\n      add\n      mstore\n      not(0x1f)\n      0x1f\n      dup3\n      add\n      and\n      swap1\n      pop\n      dup1\n      dup4\n      add\n      swap3\n      pop\n      pop\n      pop\n      pop\n      pop\n      pop\n      pop\n      dup2\n      mstore\n      0x20\n      add\n        /* \"contracts/SimpleLibrary.sol\":1257:1262  _year */\n      dup6\n        /* \"contracts/SimpleLibrary.sol\":1237:1272  Book(_isbn, _title, _year, _author) */\n      dup2\n      mstore\n      0x20\n      add\n        /* \"contracts/SimpleLibrary.sol\":1264:1271  _author */\n      dup5\n      dup5\n        /* \"contracts/SimpleLibrary.sol\":1237:1272  Book(_isbn, _title, _year, _author) */\n      dup1\n      dup1\n      0x1f\n      add\n      0x20\n      dup1\n      swap2\n      div\n      mul\n      0x20\n      add\n      mload(0x40)\n      swap1\n      dup2\n      add\n      0x40\n      mstore\n      dup1\n      swap4\n      swap3\n      swap2\n      swap1\n      dup2\n      dup2\n      mstore\n      0x20\n      add\n      dup4\n      dup4\n      dup1\n      dup3\n      dup5\n      calldatacopy\n      0x00\n      dup2\n      dup5\n      add\n      mstore\n      not(0x1f)\n      0x1f\n      dup3\n      add\n      and\n      swap1\n      pop\n      dup1\n      dup4\n      add\n      swap3\n      pop\n      pop\n      pop\n      pop\n      pop\n      pop\n      pop\n      dup2\n      mstore\n      pop\n        /* \"contracts/SimpleLibrary.sol\":1215:1272  Book memory newBook = Book(_isbn, _title, _year, _author) */\n      swap1\n      pop\n        /* \"contracts/SimpleLibrary.sol\":1298:1305  newBook */\n      dup1\n        /* \"contracts/SimpleLibrary.sol\":1283:1288  books */\n      0x00\n        /* \"contracts/SimpleLibrary.sol\":1289:1294  _isbn */\n      dup10\n      dup10\n        /* \"contracts/SimpleLibrary.sol\":1283:1295  books[_isbn] */\n      mload(0x40)\n      tag_65\n      swap3\n      swap2\n      swap1\n      tag_28\n      jump\t// in\n    tag_65:\n      swap1\n      dup2\n      mstore\n      0x20\n      add\n      mload(0x40)\n      dup1\n      swap2\n      sub\n      swap1\n      keccak256\n        /* \"contracts/SimpleLibrary.sol\":1283:1305  books[_isbn] = newBook */\n      0x00\n      dup3\n      add\n      mload\n      dup2\n      0x00\n      add\n      swap1\n      dup1\n      mload\n      swap1\n      0x20\n      add\n      swap1\n      tag_66\n      swap3\n      swap2\n      swap1\n      tag_67\n      jump\t// in\n    tag_66:\n      pop\n      0x20\n      dup3\n      add\n      mload\n      dup2\n      0x01\n      add\n      swap1\n      dup1\n      mload\n      swap1\n      0x20\n      add\n      swap1\n      tag_68\n      swap3\n      swap2\n      swap1\n      tag_67\n      jump\t// in\n    tag_68:\n      pop\n      0x40\n      dup3\n      add\n      mload\n      dup2\n      0x02\n      add\n      sstore\n      0x60\n      dup3\n      add\n      mload\n      dup2\n      0x03\n      add\n      swap1\n      dup1\n      mload\n      swap1\n      0x20\n      add\n      swap1\n      tag_69\n      swap3\n      swap2\n      swap1\n      tag_67\n      jump\t// in\n    tag_69:\n      pop\n      swap1\n      pop\n      pop\n        /* \"contracts/SimpleLibrary.sol\":1331:1336  _isbn */\n      dup8\n      dup8\n        /* \"contracts/SimpleLibrary.sol\":1321:1361  BookAdded(_isbn, _title, _year, _author) */\n      mload(0x40)\n      tag_70\n      swap3\n      swap2\n      swap1\n      tag_28\n      jump\t// in\n    tag_70:\n      mload(0x40)\n      dup1\n      swap2\n      sub\n      swap1\n      keccak256\n      0x64fff20dbda90e6afeec43591f51eabd68b1b87b7aa709c00f21070707e3ea13\n        /* \"contracts/SimpleLibrary.sol\":1338:1344  _title */\n      dup8\n      dup8\n        /* \"contracts/SimpleLibrary.sol\":1346:1351  _year */\n      dup8\n        /* \"contracts/SimpleLibrary.sol\":1353:1360  _author */\n      dup8\n      dup8\n        /* \"contracts/SimpleLibrary.sol\":1321:1361  BookAdded(_isbn, _title, _year, _author) */\n      mload(0x40)\n      tag_71\n      swap6\n      swap5\n      swap4\n      swap3\n      swap2\n      swap1\n      tag_72\n      jump\t// in\n    tag_71:\n      mload(0x40)\n      dup1\n      swap2\n      sub\n      swap1\n      log2\n        /* \"contracts/SimpleLibrary.sol\":892:1369  {... */\n      pop\n        /* \"contracts/SimpleLibrary.sol\":771:1369  function addBook(string calldata _isbn, string calldata _title, uint256 _year, string calldata _author) public onlyAdmin {... */\n      pop\n      pop\n      pop\n      pop\n      pop\n      pop\n      pop\n      jump\t// out\n        /* \"contracts/SimpleLibrary.sol\":1417:1828  function updateBook(string calldata _isbn, string calldata _title, uint256 _year, string calldata _author) public onlyAdmin {... */\n    tag_19:\n        /* \"contracts/SimpleLibrary.sol\":606:611  admin */\n      0x01\n      0x00\n      swap1\n      sload\n      swap1\n      0x0100\n      exp\n      swap1\n      div\n      0xffffffffffffffffffffffffffffffffffffffff\n      and\n        /* \"contracts/SimpleLibrary.sol\":592:611  msg.sender == admin */\n      0xffffffffffffffffffffffffffffffffffffffff\n      and\n        /* \"contracts/SimpleLibrary.sol\":592:602  msg.sender */\n      caller\n        /* \"contracts/SimpleLibrary.sol\":592:611  msg.sender == admin */\n      0xffffffffffffffffffffffffffffffffffffffff\n      and\n      eq\n        /* \"contracts/SimpleLibrary.sol\":584:652  require(msg.sender == admin, \"Hanya admin yang dapat melakukan ini\") */\n      tag_74\n      jumpi\n      mload(0x40)\n      0x08c379a000000000000000000000000000000000000000000000000000000000\n      dup2\n      mstore\n      0x04\n      add\n      tag_75\n      swap1\n      tag_51\n      jump\t// in\n    tag_75:\n      mload(0x40)\n      dup1\n      swap2\n      sub\n      swap1\n      revert\n    tag_74:\n        /* \"contracts/SimpleLibrary.sol\":1582:1583  0 */\n      0x00\n        /* \"contracts/SimpleLibrary.sol\":1566:1571  _isbn */\n      dup8\n      dup8\n        /* \"contracts/SimpleLibrary.sol\":1560:1579  bytes(_isbn).length */\n      swap1\n      pop\n        /* \"contracts/SimpleLibrary.sol\":1560:1583  bytes(_isbn).length > 0 */\n      gt\n        /* \"contracts/SimpleLibrary.sol\":1552:1611  require(bytes(_isbn).length > 0, \"ISBN tidak boleh kosong\") */\n      tag_77\n      jumpi\n      mload(0x40)\n      0x08c379a000000000000000000000000000000000000000000000000000000000\n      dup2\n      mstore\n      0x04\n      add\n      tag_78\n      swap1\n      tag_26\n      jump\t// in\n    tag_78:\n      mload(0x40)\n      dup1\n      swap2\n      sub\n      swap1\n      revert\n    tag_77:\n        /* \"contracts/SimpleLibrary.sol\":1652:1653  0 */\n      0x00\n        /* \"contracts/SimpleLibrary.sol\":1632:1637  books */\n      dup1\n        /* \"contracts/SimpleLibrary.sol\":1638:1643  _isbn */\n      dup9\n      dup9\n        /* \"contracts/SimpleLibrary.sol\":1632:1644  books[_isbn] */\n      mload(0x40)\n      tag_79\n      swap3\n      swap2\n      swap1\n      tag_28\n      jump\t// in\n    tag_79:\n      swap1\n      dup2\n      mstore\n      0x20\n      add\n      mload(0x40)\n      dup1\n      swap2\n      sub\n      swap1\n      keccak256\n        /* \"contracts/SimpleLibrary.sol\":1632:1649  books[_isbn].year */\n      0x02\n      add\n      sload\n        /* \"contracts/SimpleLibrary.sol\":1632:1653  books[_isbn].year > 0 */\n      gt\n        /* \"contracts/SimpleLibrary.sol\":1624:1699  require(books[_isbn].year > 0, \"Buku dengan ISBN tersebut tidak ditemukan\") */\n      tag_80\n      jumpi\n      mload(0x40)\n      0x08c379a000000000000000000000000000000000000000000000000000000000\n      dup2\n      mstore\n      0x04\n      add\n      tag_81\n      swap1\n      tag_47\n      jump\t// in\n    tag_81:\n      mload(0x40)\n      dup1\n      swap2\n      sub\n      swap1\n      revert\n    tag_80:\n        /* \"contracts/SimpleLibrary.sol\":1727:1762  Book(_isbn, _title, _year, _author) */\n      mload(0x40)\n      dup1\n      0x80\n      add\n      0x40\n      mstore\n      dup1\n        /* \"contracts/SimpleLibrary.sol\":1732:1737  _isbn */\n      dup9\n      dup9\n        /* \"contracts/SimpleLibrary.sol\":1727:1762  Book(_isbn, _title, _year, _author) */\n      dup1\n      dup1\n      0x1f\n      add\n      0x20\n      dup1\n      swap2\n      div\n      mul\n      0x20\n      add\n      mload(0x40)\n      swap1\n      dup2\n      add\n      0x40\n      mstore\n      dup1\n      swap4\n      swap3\n      swap2\n      swap1\n      dup2\n      dup2\n      mstore\n      0x20\n      add\n      dup4\n      dup4\n      dup1\n      dup3\n      dup5\n      calldatacopy\n      0x00\n      dup2\n      dup5\n      add\n      mstore\n      not(0x1f)\n      0x1f\n      dup3\n      add\n      and\n      swap1\n      pop\n      dup1\n      dup4\n      add\n      swap3\n      pop\n      pop\n      pop\n      pop\n      pop\n      pop\n      pop\n      dup2\n      mstore\n      0x20\n      add\n        /* \"contracts/SimpleLibrary.sol\":1739:1745  _title */\n      dup7\n      dup7\n        /* \"contracts/SimpleLibrary.sol\":1727:1762  Book(_isbn, _title, _year, _author) */\n      dup1\n      dup1\n      0x1f\n      add\n      0x20\n      dup1\n      swap2\n      div\n      mul\n      0x20\n      add\n      mload(0x40)\n      swap1\n      dup2\n      add\n      0x40\n      mstore\n      dup1\n      swap4\n      swap3\n      swap2\n      swap1\n      dup2\n      dup2\n      mstore\n      0x20\n      add\n      dup4\n      dup4\n      dup1\n      dup3\n      dup5\n      calldatacopy\n      0x00\n      dup2\n      dup5\n      add\n      mstore\n      not(0x1f)\n      0x1f\n      dup3\n      add\n      and\n      swap1\n      pop\n      dup1\n      dup4\n      add\n      swap3\n      pop\n      pop\n      pop\n      pop\n      pop\n      pop\n      pop\n      dup2\n      mstore\n      0x20\n      add\n        /* \"contracts/SimpleLibrary.sol\":1747:1752  _year */\n      dup5\n        /* \"contracts/SimpleLibrary.sol\":1727:1762  Book(_isbn, _title, _year, _author) */\n      dup2\n      mstore\n      0x20\n      add\n        /* \"contracts/SimpleLibrary.sol\":1754:1761  _author */\n      dup4\n      dup4\n        /* \"contracts/SimpleLibrary.sol\":1727:1762  Book(_isbn, _title, _year, _author) */\n      dup1\n      dup1\n      0x1f\n      add\n      0x20\n      dup1\n      swap2\n      div\n      mul\n      0x20\n      add\n      mload(0x40)\n      swap1\n      dup2\n      add\n      0x40\n      mstore\n      dup1\n      swap4\n      swap3\n      swap2\n      swap1\n      dup2\n      dup2\n      mstore\n      0x20\n      add\n      dup4\n      dup4\n      dup1\n      dup3\n      dup5\n      calldatacopy\n      0x00\n      dup2\n      dup5\n      add\n      mstore\n      not(0x1f)\n      0x1f\n      dup3\n      add\n      and\n      swap1\n      pop\n      dup1\n      dup4\n      add\n      swap3\n      pop\n      pop\n      pop\n      pop\n      pop\n      pop\n      pop\n      dup2\n      mstore\n      pop\n        /* \"contracts/SimpleLibrary.sol\":1712:1717  books */\n      0x00\n        /* \"contracts/SimpleLibrary.sol\":1718:1723  _isbn */\n      dup9\n      dup9\n        /* \"contracts/SimpleLibrary.sol\":1712:1724  books[_isbn] */\n      mload(0x40)\n      tag_82\n      swap3\n      swap2\n      swap1\n      tag_28\n      jump\t// in\n    tag_82:\n      swap1\n      dup2\n      mstore\n      0x20\n      add\n      mload(0x40)\n      dup1\n      swap2\n      sub\n      swap1\n      keccak256\n        /* \"contracts/SimpleLibrary.sol\":1712:1762  books[_isbn] = Book(_isbn, _title, _year, _author) */\n      0x00\n      dup3\n      add\n      mload\n      dup2\n      0x00\n      add\n      swap1\n      dup1\n      mload\n      swap1\n      0x20\n      add\n      swap1\n      tag_83\n      swap3\n      swap2\n      swap1\n      tag_67\n      jump\t// in\n    tag_83:\n      pop\n      0x20\n      dup3\n      add\n      mload\n      dup2\n      0x01\n      add\n      swap1\n      dup1\n      mload\n      swap1\n      0x20\n      add\n      swap1\n      tag_84\n      swap3\n      swap2\n      swap1\n      tag_67\n      jump\t// in\n    tag_84:\n      pop\n      0x40\n      dup3\n      add\n      mload\n      dup2\n      0x02\n      add\n      sstore\n      0x60\n      dup3\n      add\n      mload\n      dup2\n      0x03\n      add\n      swap1\n      dup1\n      mload\n      swap1\n      0x20\n      add\n      swap1\n      tag_85\n      swap3\n      swap2\n      swap1\n      tag_67\n      jump\t// in\n    tag_85:\n      pop\n      swap1\n      pop\n      pop\n        /* \"contracts/SimpleLibrary.sol\":1790:1795  _isbn */\n      dup7\n      dup7\n        /* \"contracts/SimpleLibrary.sol\":1778:1820  BookUpdated(_isbn, _title, _year, _author) */\n      mload(0x40)\n      tag_86\n      swap3\n      swap2\n      swap1\n      tag_28\n      jump\t// in\n    tag_86:\n      mload(0x40)\n      dup1\n      swap2\n      sub\n      swap1\n      keccak256\n      0x1d6e9ac6456a38d154574dc5f64d9a9ec5ccb282574cd3a2b4d152ea8261edc3\n        /* \"contracts/SimpleLibrary.sol\":1797:1803  _title */\n      dup7\n      dup7\n        /* \"contracts/SimpleLibrary.sol\":1805:1810  _year */\n      dup7\n        /* \"contracts/SimpleLibrary.sol\":1812:1819  _author */\n      dup7\n      dup7\n        /* \"contracts/SimpleLibrary.sol\":1778:1820  BookUpdated(_isbn, _title, _year, _author) */\n      mload(0x40)\n      tag_87\n      swap6\n      swap5\n      swap4\n      swap3\n      swap2\n      swap1\n      tag_72\n      jump\t// in\n    tag_87:\n      mload(0x40)\n      dup1\n      swap2\n      sub\n      swap1\n      log2\n        /* \"contracts/SimpleLibrary.sol\":1417:1828  function updateBook(string calldata _isbn, string calldata _title, uint256 _year, string calldata _author) public onlyAdmin {... */\n      pop\n      pop\n      pop\n      pop\n      pop\n      pop\n      pop\n      jump\t// out\n        /* \"contracts/SimpleLibrary.sol\":1882:2174  function deleteBook(string calldata _isbn) public onlyAdmin {... */\n    tag_22:\n        /* \"contracts/SimpleLibrary.sol\":606:611  admin */\n      0x01\n      0x00\n      swap1\n      sload\n      swap1\n      0x0100\n      exp\n      swap1\n      div\n      0xffffffffffffffffffffffffffffffffffffffff\n      and\n        /* \"contracts/SimpleLibrary.sol\":592:611  msg.sender == admin */\n      0xffffffffffffffffffffffffffffffffffffffff\n      and\n        /* \"contracts/SimpleLibrary.sol\":592:602  msg.sender */\n      caller\n        /* \"contracts/SimpleLibrary.sol\":592:611  msg.sender == admin */\n      0xffffffffffffffffffffffffffffffffffffffff\n      and\n      eq\n        /* \"contracts/SimpleLibrary.sol\":584:652  require(msg.sender == admin, \"Hanya admin yang dapat melakukan ini\") */\n      tag_89\n      jumpi\n      mload(0x40)\n      0x08c379a000000000000000000000000000000000000000000000000000000000\n      dup2\n      mstore\n      0x04\n      add\n      tag_90\n      swap1\n      tag_51\n      jump\t// in\n    tag_90:\n      mload(0x40)\n      dup1\n      swap2\n      sub\n      swap1\n      revert\n    tag_89:\n        /* \"contracts/SimpleLibrary.sol\":1983:1984  0 */\n      0x00\n        /* \"contracts/SimpleLibrary.sol\":1967:1972  _isbn */\n      dup3\n      dup3\n        /* \"contracts/SimpleLibrary.sol\":1961:1980  bytes(_isbn).length */\n      swap1\n      pop\n        /* \"contracts/SimpleLibrary.sol\":1961:1984  bytes(_isbn).length > 0 */\n      gt\n        /* \"contracts/SimpleLibrary.sol\":1953:2012  require(bytes(_isbn).length > 0, \"ISBN tidak boleh kosong\") */\n      tag_92\n      jumpi\n      mload(0x40)\n      0x08c379a000000000000000000000000000000000000000000000000000000000\n      dup2\n      mstore\n      0x04\n      add\n      tag_93\n      swap1\n      tag_26\n      jump\t// in\n    tag_93:\n      mload(0x40)\n      dup1\n      swap2\n      sub\n      swap1\n      revert\n    tag_92:\n        /* \"contracts/SimpleLibrary.sol\":2053:2054  0 */\n      0x00\n        /* \"contracts/SimpleLibrary.sol\":2033:2038  books */\n      dup1\n        /* \"contracts/SimpleLibrary.sol\":2039:2044  _isbn */\n      dup4\n      dup4\n        /* \"contracts/SimpleLibrary.sol\":2033:2045  books[_isbn] */\n      mload(0x40)\n      tag_94\n      swap3\n      swap2\n      swap1\n      tag_28\n      jump\t// in\n    tag_94:\n      swap1\n      dup2\n      mstore\n      0x20\n      add\n      mload(0x40)\n      dup1\n      swap2\n      sub\n      swap1\n      keccak256\n        /* \"contracts/SimpleLibrary.sol\":2033:2050  books[_isbn].year */\n      0x02\n      add\n      sload\n        /* \"contracts/SimpleLibrary.sol\":2033:2054  books[_isbn].year > 0 */\n      gt\n        /* \"contracts/SimpleLibrary.sol\":2025:2100  require(books[_isbn].year > 0, \"Buku dengan ISBN tersebut tidak ditemukan\") */\n      tag_95\n      jumpi\n      mload(0x40)\n      0x08c379a000000000000000000000000000000000000000000000000000000000\n      dup2\n      mstore\n      0x04\n      add\n      tag_96\n      swap1\n      tag_47\n      jump\t// in\n    tag_96:\n      mload(0x40)\n      dup1\n      swap2\n      sub\n      swap1\n      revert\n    tag_95:\n        /* \"contracts/SimpleLibrary.sol\":2120:2125  books */\n      0x00\n        /* \"contracts/SimpleLibrary.sol\":2126:2131  _isbn */\n      dup3\n      dup3\n        /* \"contracts/SimpleLibrary.sol\":2120:2132  books[_isbn] */\n      mload(0x40)\n      tag_97\n      swap3\n      swap2\n      swap1\n      tag_28\n      jump\t// in\n    tag_97:\n      swap1\n      dup2\n      mstore\n      0x20\n      add\n      mload(0x40)\n      dup1\n      swap2\n      sub\n      swap1\n      keccak256\n      0x00\n        /* \"contracts/SimpleLibrary.sol\":2113:2132  delete books[_isbn] */\n      dup1\n      dup3\n      add\n      0x00\n      tag_98\n      swap2\n      swap1\n      tag_99\n      jump\t// in\n    tag_98:\n      0x01\n      dup3\n      add\n      0x00\n      tag_100\n      swap2\n      swap1\n      tag_99\n      jump\t// in\n    tag_100:\n      0x02\n      dup3\n      add\n      0x00\n      swap1\n      sstore\n      0x03\n      dup3\n      add\n      0x00\n      tag_101\n      swap2\n      swap1\n      tag_99\n      jump\t// in\n    tag_101:\n      pop\n      pop\n        /* \"contracts/SimpleLibrary.sol\":2160:2165  _isbn */\n      dup2\n      dup2\n        /* \"contracts/SimpleLibrary.sol\":2148:2166  BookDeleted(_isbn) */\n      mload(0x40)\n      tag_102\n      swap3\n      swap2\n      swap1\n      tag_28\n      jump\t// in\n    tag_102:\n      mload(0x40)\n      dup1\n      swap2\n      sub\n      swap1\n      keccak256\n      0x1e249c00741a4837800f8fb78a8a6024d8cddf10bac1f001258305a2644e169a\n      mload(0x40)\n      mload(0x40)\n      dup1\n      swap2\n      sub\n      swap1\n      log2\n        /* \"contracts/SimpleLibrary.sol\":1882:2174  function deleteBook(string calldata _isbn) public onlyAdmin {... */\n      pop\n      pop\n      jump\t// out\n    tag_67:\n      dup3\n      dup1\n      sload\n      tag_103\n      swap1\n      tag_30\n      jump\t// in\n    tag_103:\n      swap1\n      0x00\n      mstore\n      keccak256(0x00, 0x20)\n      swap1\n      0x1f\n      add\n      0x20\n      swap1\n      div\n      dup2\n      add\n      swap3\n      dup3\n      tag_105\n      jumpi\n      0x00\n      dup6\n      sstore\n      jump(tag_104)\n    tag_105:\n      dup3\n      0x1f\n      lt\n      tag_106\n      jumpi\n      dup1\n      mload\n      not(0xff)\n      and\n      dup4\n      dup1\n      add\n      or\n      dup6\n      sstore\n      jump(tag_104)\n    tag_106:\n      dup3\n      dup1\n      add\n      0x01\n      add\n      dup6\n      sstore\n      dup3\n      iszero\n      tag_104\n      jumpi\n      swap2\n      dup3\n      add\n    tag_107:\n      dup3\n      dup2\n      gt\n      iszero\n      tag_108\n      jumpi\n      dup3\n      mload\n      dup3\n      sstore\n      swap2\n      0x20\n      add\n      swap2\n      swap1\n      0x01\n      add\n      swap1\n      jump(tag_107)\n    tag_108:\n    tag_104:\n      pop\n      swap1\n      pop\n      tag_109\n      swap2\n      swap1\n      tag_110\n      jump\t// in\n    tag_109:\n      pop\n      swap1\n      jump\t// out\n    tag_99:\n      pop\n      dup1\n      sload\n      tag_111\n      swap1\n      tag_30\n      jump\t// in\n    tag_111:\n      0x00\n      dup3\n      sstore\n      dup1\n      0x1f\n      lt\n      tag_113\n      jumpi\n      pop\n      jump(tag_112)\n    tag_113:\n      0x1f\n      add\n      0x20\n      swap1\n      div\n      swap1\n      0x00\n      mstore\n      keccak256(0x00, 0x20)\n      swap1\n      dup2\n      add\n      swap1\n      tag_114\n      swap2\n      swap1\n      tag_110\n      jump\t// in\n    tag_114:\n    tag_112:\n      pop\n      jump\t// out\n    tag_110:\n    tag_115:\n      dup1\n      dup3\n      gt\n      iszero\n      tag_116\n      jumpi\n      0x00\n      dup2\n      0x00\n      swap1\n      sstore\n      pop\n      0x01\n      add\n      jump(tag_115)\n    tag_116:\n      pop\n      swap1\n      jump\t// out\n        /* \"#utility.yul\":88:205   */\n    tag_118:\n        /* \"#utility.yul\":197:198   */\n      0x00\n        /* \"#utility.yul\":194:195   */\n      dup1\n        /* \"#utility.yul\":187:199   */\n      revert\n        /* \"#utility.yul\":211:328   */\n    tag_119:\n        /* \"#utility.yul\":320:321   */\n      0x00\n        /* \"#utility.yul\":317:318   */\n      dup1\n        /* \"#utility.yul\":310:322   */\n      revert\n        /* \"#utility.yul\":334:451   */\n    tag_120:\n        /* \"#utility.yul\":443:444   */\n      0x00\n        /* \"#utility.yul\":440:441   */\n      dup1\n        /* \"#utility.yul\":433:445   */\n      revert\n        /* \"#utility.yul\":457:574   */\n    tag_121:\n        /* \"#utility.yul\":566:567   */\n      0x00\n        /* \"#utility.yul\":563:564   */\n      dup1\n        /* \"#utility.yul\":556:568   */\n      revert\n        /* \"#utility.yul\":580:697   */\n    tag_122:\n        /* \"#utility.yul\":689:690   */\n      0x00\n        /* \"#utility.yul\":686:687   */\n      dup1\n        /* \"#utility.yul\":679:691   */\n      revert\n        /* \"#utility.yul\":717:1270   */\n    tag_123:\n        /* \"#utility.yul\":775:783   */\n      0x00\n        /* \"#utility.yul\":785:791   */\n      dup1\n        /* \"#utility.yul\":835:838   */\n      dup4\n        /* \"#utility.yul\":828:832   */\n      0x1f\n        /* \"#utility.yul\":820:826   */\n      dup5\n        /* \"#utility.yul\":816:833   */\n      add\n        /* \"#utility.yul\":812:839   */\n      slt\n        /* \"#utility.yul\":802:924   */\n      tag_158\n      jumpi\n        /* \"#utility.yul\":843:922   */\n      tag_159\n      tag_120\n      jump\t// in\n    tag_159:\n        /* \"#utility.yul\":802:924   */\n    tag_158:\n        /* \"#utility.yul\":956:962   */\n      dup3\n        /* \"#utility.yul\":943:963   */\n      calldataload\n        /* \"#utility.yul\":933:963   */\n      swap1\n      pop\n        /* \"#utility.yul\":986:1004   */\n      0xffffffffffffffff\n        /* \"#utility.yul\":978:984   */\n      dup2\n        /* \"#utility.yul\":975:1005   */\n      gt\n        /* \"#utility.yul\":972:1089   */\n      iszero\n      tag_160\n      jumpi\n        /* \"#utility.yul\":1008:1087   */\n      tag_161\n      tag_121\n      jump\t// in\n    tag_161:\n        /* \"#utility.yul\":972:1089   */\n    tag_160:\n        /* \"#utility.yul\":1122:1126   */\n      0x20\n        /* \"#utility.yul\":1114:1120   */\n      dup4\n        /* \"#utility.yul\":1110:1127   */\n      add\n        /* \"#utility.yul\":1098:1127   */\n      swap2\n      pop\n        /* \"#utility.yul\":1176:1179   */\n      dup4\n        /* \"#utility.yul\":1168:1172   */\n      0x01\n        /* \"#utility.yul\":1160:1166   */\n      dup3\n        /* \"#utility.yul\":1156:1173   */\n      mul\n        /* \"#utility.yul\":1146:1154   */\n      dup4\n        /* \"#utility.yul\":1142:1174   */\n      add\n        /* \"#utility.yul\":1139:1180   */\n      gt\n        /* \"#utility.yul\":1136:1264   */\n      iszero\n      tag_162\n      jumpi\n        /* \"#utility.yul\":1183:1262   */\n      tag_163\n      tag_122\n      jump\t// in\n    tag_163:\n        /* \"#utility.yul\":1136:1264   */\n    tag_162:\n        /* \"#utility.yul\":717:1270   */\n      swap3\n      pop\n      swap3\n      swap1\n      pop\n      jump\t// out\n        /* \"#utility.yul\":1276:1805   */\n    tag_9:\n        /* \"#utility.yul\":1347:1353   */\n      0x00\n        /* \"#utility.yul\":1355:1361   */\n      dup1\n        /* \"#utility.yul\":1404:1406   */\n      0x20\n        /* \"#utility.yul\":1392:1401   */\n      dup4\n        /* \"#utility.yul\":1383:1390   */\n      dup6\n        /* \"#utility.yul\":1379:1402   */\n      sub\n        /* \"#utility.yul\":1375:1407   */\n      slt\n        /* \"#utility.yul\":1372:1491   */\n      iszero\n      tag_165\n      jumpi\n        /* \"#utility.yul\":1410:1489   */\n      tag_166\n      tag_118\n      jump\t// in\n    tag_166:\n        /* \"#utility.yul\":1372:1491   */\n    tag_165:\n        /* \"#utility.yul\":1558:1559   */\n      0x00\n        /* \"#utility.yul\":1547:1556   */\n      dup4\n        /* \"#utility.yul\":1543:1560   */\n      add\n        /* \"#utility.yul\":1530:1561   */\n      calldataload\n        /* \"#utility.yul\":1588:1606   */\n      0xffffffffffffffff\n        /* \"#utility.yul\":1580:1586   */\n      dup2\n        /* \"#utility.yul\":1577:1607   */\n      gt\n        /* \"#utility.yul\":1574:1691   */\n      iszero\n      tag_167\n      jumpi\n        /* \"#utility.yul\":1610:1689   */\n      tag_168\n      tag_119\n      jump\t// in\n    tag_168:\n        /* \"#utility.yul\":1574:1691   */\n    tag_167:\n        /* \"#utility.yul\":1723:1788   */\n      tag_169\n        /* \"#utility.yul\":1780:1787   */\n      dup6\n        /* \"#utility.yul\":1771:1777   */\n      dup3\n        /* \"#utility.yul\":1760:1769   */\n      dup7\n        /* \"#utility.yul\":1756:1778   */\n      add\n        /* \"#utility.yul\":1723:1788   */\n      tag_123\n      jump\t// in\n    tag_169:\n        /* \"#utility.yul\":1705:1788   */\n      swap3\n      pop\n      swap3\n      pop\n        /* \"#utility.yul\":1501:1798   */\n      pop\n        /* \"#utility.yul\":1276:1805   */\n      swap3\n      pop\n      swap3\n      swap1\n      pop\n      jump\t// out\n        /* \"#utility.yul\":1811:1910   */\n    tag_124:\n        /* \"#utility.yul\":1863:1869   */\n      0x00\n        /* \"#utility.yul\":1897:1902   */\n      dup2\n        /* \"#utility.yul\":1891:1903   */\n      mload\n        /* \"#utility.yul\":1881:1903   */\n      swap1\n      pop\n        /* \"#utility.yul\":1811:1910   */\n      swap2\n      swap1\n      pop\n      jump\t// out\n        /* \"#utility.yul\":1916:2085   */\n    tag_125:\n        /* \"#utility.yul\":2000:2011   */\n      0x00\n        /* \"#utility.yul\":2034:2040   */\n      dup3\n        /* \"#utility.yul\":2029:2032   */\n      dup3\n        /* \"#utility.yul\":2022:2041   */\n      mstore\n        /* \"#utility.yul\":2074:2078   */\n      0x20\n        /* \"#utility.yul\":2069:2072   */\n      dup3\n        /* \"#utility.yul\":2065:2079   */\n      add\n        /* \"#utility.yul\":2050:2079   */\n      swap1\n      pop\n        /* \"#utility.yul\":1916:2085   */\n      swap3\n      swap2\n      pop\n      pop\n      jump\t// out\n        /* \"#utility.yul\":2091:2398   */\n    tag_126:\n        /* \"#utility.yul\":2159:2160   */\n      0x00\n        /* \"#utility.yul\":2169:2282   */\n    tag_173:\n        /* \"#utility.yul\":2183:2189   */\n      dup4\n        /* \"#utility.yul\":2180:2181   */\n      dup2\n        /* \"#utility.yul\":2177:2190   */\n      lt\n        /* \"#utility.yul\":2169:2282   */\n      iszero\n      tag_175\n      jumpi\n        /* \"#utility.yul\":2268:2269   */\n      dup1\n        /* \"#utility.yul\":2263:2266   */\n      dup3\n        /* \"#utility.yul\":2259:2270   */\n      add\n        /* \"#utility.yul\":2253:2271   */\n      mload\n        /* \"#utility.yul\":2249:2250   */\n      dup2\n        /* \"#utility.yul\":2244:2247   */\n      dup5\n        /* \"#utility.yul\":2240:2251   */\n      add\n        /* \"#utility.yul\":2233:2272   */\n      mstore\n        /* \"#utility.yul\":2205:2207   */\n      0x20\n        /* \"#utility.yul\":2202:2203   */\n      dup2\n        /* \"#utility.yul\":2198:2208   */\n      add\n        /* \"#utility.yul\":2193:2208   */\n      swap1\n      pop\n        /* \"#utility.yul\":2169:2282   */\n      jump(tag_173)\n    tag_175:\n        /* \"#utility.yul\":2300:2306   */\n      dup4\n        /* \"#utility.yul\":2297:2298   */\n      dup2\n        /* \"#utility.yul\":2294:2307   */\n      gt\n        /* \"#utility.yul\":2291:2392   */\n      iszero\n      tag_176\n      jumpi\n        /* \"#utility.yul\":2380:2381   */\n      0x00\n        /* \"#utility.yul\":2371:2377   */\n      dup5\n        /* \"#utility.yul\":2366:2369   */\n      dup5\n        /* \"#utility.yul\":2362:2378   */\n      add\n        /* \"#utility.yul\":2355:2382   */\n      mstore\n        /* \"#utility.yul\":2291:2392   */\n    tag_176:\n        /* \"#utility.yul\":2140:2398   */\n      pop\n        /* \"#utility.yul\":2091:2398   */\n      pop\n      pop\n      pop\n      jump\t// out\n        /* \"#utility.yul\":2404:2506   */\n    tag_127:\n        /* \"#utility.yul\":2445:2451   */\n      0x00\n        /* \"#utility.yul\":2496:2498   */\n      0x1f\n        /* \"#utility.yul\":2492:2499   */\n      not\n        /* \"#utility.yul\":2487:2489   */\n      0x1f\n        /* \"#utility.yul\":2480:2485   */\n      dup4\n        /* \"#utility.yul\":2476:2490   */\n      add\n        /* \"#utility.yul\":2472:2500   */\n      and\n        /* \"#utility.yul\":2462:2500   */\n      swap1\n      pop\n        /* \"#utility.yul\":2404:2506   */\n      swap2\n      swap1\n      pop\n      jump\t// out\n        /* \"#utility.yul\":2512:2876   */\n    tag_128:\n        /* \"#utility.yul\":2600:2603   */\n      0x00\n        /* \"#utility.yul\":2628:2667   */\n      tag_179\n        /* \"#utility.yul\":2661:2666   */\n      dup3\n        /* \"#utility.yul\":2628:2667   */\n      tag_124\n      jump\t// in\n    tag_179:\n        /* \"#utility.yul\":2683:2754   */\n      tag_180\n        /* \"#utility.yul\":2747:2753   */\n      dup2\n        /* \"#utility.yul\":2742:2745   */\n      dup6\n        /* \"#utility.yul\":2683:2754   */\n      tag_125\n      jump\t// in\n    tag_180:\n        /* \"#utility.yul\":2676:2754   */\n      swap4\n      pop\n        /* \"#utility.yul\":2763:2815   */\n      tag_181\n        /* \"#utility.yul\":2808:2814   */\n      dup2\n        /* \"#utility.yul\":2803:2806   */\n      dup6\n        /* \"#utility.yul\":2796:2800   */\n      0x20\n        /* \"#utility.yul\":2789:2794   */\n      dup7\n        /* \"#utility.yul\":2785:2801   */\n      add\n        /* \"#utility.yul\":2763:2815   */\n      tag_126\n      jump\t// in\n    tag_181:\n        /* \"#utility.yul\":2840:2869   */\n      tag_182\n        /* \"#utility.yul\":2862:2868   */\n      dup2\n        /* \"#utility.yul\":2840:2869   */\n      tag_127\n      jump\t// in\n    tag_182:\n        /* \"#utility.yul\":2835:2838   */\n      dup5\n        /* \"#utility.yul\":2831:2870   */\n      add\n        /* \"#utility.yul\":2824:2870   */\n      swap2\n      pop\n        /* \"#utility.yul\":2604:2876   */\n      pop\n        /* \"#utility.yul\":2512:2876   */\n      swap3\n      swap2\n      pop\n      pop\n      jump\t// out\n        /* \"#utility.yul\":2882:2959   */\n    tag_129:\n        /* \"#utility.yul\":2919:2926   */\n      0x00\n        /* \"#utility.yul\":2948:2953   */\n      dup2\n        /* \"#utility.yul\":2937:2953   */\n      swap1\n      pop\n        /* \"#utility.yul\":2882:2959   */\n      swap2\n      swap1\n      pop\n      jump\t// out\n        /* \"#utility.yul\":2965:3083   */\n    tag_130:\n        /* \"#utility.yul\":3052:3076   */\n      tag_185\n        /* \"#utility.yul\":3070:3075   */\n      dup2\n        /* \"#utility.yul\":3052:3076   */\n      tag_129\n      jump\t// in\n    tag_185:\n        /* \"#utility.yul\":3047:3050   */\n      dup3\n        /* \"#utility.yul\":3040:3077   */\n      mstore\n        /* \"#utility.yul\":2965:3083   */\n      pop\n      pop\n      jump\t// out\n        /* \"#utility.yul\":3089:3915   */\n    tag_12:\n        /* \"#utility.yul\":3326:3330   */\n      0x00\n        /* \"#utility.yul\":3364:3367   */\n      0x80\n        /* \"#utility.yul\":3353:3362   */\n      dup3\n        /* \"#utility.yul\":3349:3368   */\n      add\n        /* \"#utility.yul\":3341:3368   */\n      swap1\n      pop\n        /* \"#utility.yul\":3414:3423   */\n      dup2\n        /* \"#utility.yul\":3408:3412   */\n      dup2\n        /* \"#utility.yul\":3404:3424   */\n      sub\n        /* \"#utility.yul\":3400:3401   */\n      0x00\n        /* \"#utility.yul\":3389:3398   */\n      dup4\n        /* \"#utility.yul\":3385:3402   */\n      add\n        /* \"#utility.yul\":3378:3425   */\n      mstore\n        /* \"#utility.yul\":3442:3520   */\n      tag_187\n        /* \"#utility.yul\":3515:3519   */\n      dup2\n        /* \"#utility.yul\":3506:3512   */\n      dup8\n        /* \"#utility.yul\":3442:3520   */\n      tag_128\n      jump\t// in\n    tag_187:\n        /* \"#utility.yul\":3434:3520   */\n      swap1\n      pop\n        /* \"#utility.yul\":3567:3576   */\n      dup2\n        /* \"#utility.yul\":3561:3565   */\n      dup2\n        /* \"#utility.yul\":3557:3577   */\n      sub\n        /* \"#utility.yul\":3552:3554   */\n      0x20\n        /* \"#utility.yul\":3541:3550   */\n      dup4\n        /* \"#utility.yul\":3537:3555   */\n      add\n        /* \"#utility.yul\":3530:3578   */\n      mstore\n        /* \"#utility.yul\":3595:3673   */\n      tag_188\n        /* \"#utility.yul\":3668:3672   */\n      dup2\n        /* \"#utility.yul\":3659:3665   */\n      dup7\n        /* \"#utility.yul\":3595:3673   */\n      tag_128\n      jump\t// in\n    tag_188:\n        /* \"#utility.yul\":3587:3673   */\n      swap1\n      pop\n        /* \"#utility.yul\":3683:3755   */\n      tag_189\n        /* \"#utility.yul\":3751:3753   */\n      0x40\n        /* \"#utility.yul\":3740:3749   */\n      dup4\n        /* \"#utility.yul\":3736:3754   */\n      add\n        /* \"#utility.yul\":3727:3733   */\n      dup6\n        /* \"#utility.yul\":3683:3755   */\n      tag_130\n      jump\t// in\n    tag_189:\n        /* \"#utility.yul\":3802:3811   */\n      dup2\n        /* \"#utility.yul\":3796:3800   */\n      dup2\n        /* \"#utility.yul\":3792:3812   */\n      sub\n        /* \"#utility.yul\":3787:3789   */\n      0x60\n        /* \"#utility.yul\":3776:3785   */\n      dup4\n        /* \"#utility.yul\":3772:3790   */\n      add\n        /* \"#utility.yul\":3765:3813   */\n      mstore\n        /* \"#utility.yul\":3830:3908   */\n      tag_190\n        /* \"#utility.yul\":3903:3907   */\n      dup2\n        /* \"#utility.yul\":3894:3900   */\n      dup5\n        /* \"#utility.yul\":3830:3908   */\n      tag_128\n      jump\t// in\n    tag_190:\n        /* \"#utility.yul\":3822:3908   */\n      swap1\n      pop\n        /* \"#utility.yul\":3089:3915   */\n      swap6\n      swap5\n      pop\n      pop\n      pop\n      pop\n      pop\n      jump\t// out\n        /* \"#utility.yul\":3921:4043   */\n    tag_131:\n        /* \"#utility.yul\":3994:4018   */\n      tag_192\n        /* \"#utility.yul\":4012:4017   */\n      dup2\n        /* \"#utility.yul\":3994:4018   */\n      tag_129\n      jump\t// in\n    tag_192:\n        /* \"#utility.yul\":3987:3992   */\n      dup2\n        /* \"#utility.yul\":3984:4019   */\n      eq\n        /* \"#utility.yul\":3974:4037   */\n      tag_193\n      jumpi\n        /* \"#utility.yul\":4033:4034   */\n      0x00\n        /* \"#utility.yul\":4030:4031   */\n      dup1\n        /* \"#utility.yul\":4023:4035   */\n      revert\n        /* \"#utility.yul\":3974:4037   */\n    tag_193:\n        /* \"#utility.yul\":3921:4043   */\n      pop\n      jump\t// out\n        /* \"#utility.yul\":4049:4188   */\n    tag_132:\n        /* \"#utility.yul\":4095:4100   */\n      0x00\n        /* \"#utility.yul\":4133:4139   */\n      dup2\n        /* \"#utility.yul\":4120:4140   */\n      calldataload\n        /* \"#utility.yul\":4111:4140   */\n      swap1\n      pop\n        /* \"#utility.yul\":4149:4182   */\n      tag_195\n        /* \"#utility.yul\":4176:4181   */\n      dup2\n        /* \"#utility.yul\":4149:4182   */\n      tag_131\n      jump\t// in\n    tag_195:\n        /* \"#utility.yul\":4049:4188   */\n      swap3\n      swap2\n      pop\n      pop\n      jump\t// out\n        /* \"#utility.yul\":4194:5559   */\n    tag_15:\n        /* \"#utility.yul\":4316:4322   */\n      0x00\n        /* \"#utility.yul\":4324:4330   */\n      dup1\n        /* \"#utility.yul\":4332:4338   */\n      0x00\n        /* \"#utility.yul\":4340:4346   */\n      dup1\n        /* \"#utility.yul\":4348:4354   */\n      0x00\n        /* \"#utility.yul\":4356:4362   */\n      dup1\n        /* \"#utility.yul\":4364:4370   */\n      0x00\n        /* \"#utility.yul\":4413:4416   */\n      0x80\n        /* \"#utility.yul\":4401:4410   */\n      dup9\n        /* \"#utility.yul\":4392:4399   */\n      dup11\n        /* \"#utility.yul\":4388:4411   */\n      sub\n        /* \"#utility.yul\":4384:4417   */\n      slt\n        /* \"#utility.yul\":4381:4501   */\n      iszero\n      tag_197\n      jumpi\n        /* \"#utility.yul\":4420:4499   */\n      tag_198\n      tag_118\n      jump\t// in\n    tag_198:\n        /* \"#utility.yul\":4381:4501   */\n    tag_197:\n        /* \"#utility.yul\":4568:4569   */\n      0x00\n        /* \"#utility.yul\":4557:4566   */\n      dup9\n        /* \"#utility.yul\":4553:4570   */\n      add\n        /* \"#utility.yul\":4540:4571   */\n      calldataload\n        /* \"#utility.yul\":4598:4616   */\n      0xffffffffffffffff\n        /* \"#utility.yul\":4590:4596   */\n      dup2\n        /* \"#utility.yul\":4587:4617   */\n      gt\n        /* \"#utility.yul\":4584:4701   */\n      iszero\n      tag_199\n      jumpi\n        /* \"#utility.yul\":4620:4699   */\n      tag_200\n      tag_119\n      jump\t// in\n    tag_200:\n        /* \"#utility.yul\":4584:4701   */\n    tag_199:\n        /* \"#utility.yul\":4733:4798   */\n      tag_201\n        /* \"#utility.yul\":4790:4797   */\n      dup11\n        /* \"#utility.yul\":4781:4787   */\n      dup3\n        /* \"#utility.yul\":4770:4779   */\n      dup12\n        /* \"#utility.yul\":4766:4788   */\n      add\n        /* \"#utility.yul\":4733:4798   */\n      tag_123\n      jump\t// in\n    tag_201:\n        /* \"#utility.yul\":4715:4798   */\n      swap8\n      pop\n      swap8\n      pop\n        /* \"#utility.yul\":4511:4808   */\n      pop\n        /* \"#utility.yul\":4875:4877   */\n      0x20\n        /* \"#utility.yul\":4864:4873   */\n      dup9\n        /* \"#utility.yul\":4860:4878   */\n      add\n        /* \"#utility.yul\":4847:4879   */\n      calldataload\n        /* \"#utility.yul\":4906:4924   */\n      0xffffffffffffffff\n        /* \"#utility.yul\":4898:4904   */\n      dup2\n        /* \"#utility.yul\":4895:4925   */\n      gt\n        /* \"#utility.yul\":4892:5009   */\n      iszero\n      tag_202\n      jumpi\n        /* \"#utility.yul\":4928:5007   */\n      tag_203\n      tag_119\n      jump\t// in\n    tag_203:\n        /* \"#utility.yul\":4892:5009   */\n    tag_202:\n        /* \"#utility.yul\":5041:5106   */\n      tag_204\n        /* \"#utility.yul\":5098:5105   */\n      dup11\n        /* \"#utility.yul\":5089:5095   */\n      dup3\n        /* \"#utility.yul\":5078:5087   */\n      dup12\n        /* \"#utility.yul\":5074:5096   */\n      add\n        /* \"#utility.yul\":5041:5106   */\n      tag_123\n      jump\t// in\n    tag_204:\n        /* \"#utility.yul\":5023:5106   */\n      swap6\n      pop\n      swap6\n      pop\n        /* \"#utility.yul\":4818:5116   */\n      pop\n        /* \"#utility.yul\":5155:5157   */\n      0x40\n        /* \"#utility.yul\":5181:5234   */\n      tag_205\n        /* \"#utility.yul\":5226:5233   */\n      dup11\n        /* \"#utility.yul\":5217:5223   */\n      dup3\n        /* \"#utility.yul\":5206:5215   */\n      dup12\n        /* \"#utility.yul\":5202:5224   */\n      add\n        /* \"#utility.yul\":5181:5234   */\n      tag_132\n      jump\t// in\n    tag_205:\n        /* \"#utility.yul\":5171:5234   */\n      swap4\n      pop\n        /* \"#utility.yul\":5126:5244   */\n      pop\n        /* \"#utility.yul\":5311:5313   */\n      0x60\n        /* \"#utility.yul\":5300:5309   */\n      dup9\n        /* \"#utility.yul\":5296:5314   */\n      add\n        /* \"#utility.yul\":5283:5315   */\n      calldataload\n        /* \"#utility.yul\":5342:5360   */\n      0xffffffffffffffff\n        /* \"#utility.yul\":5334:5340   */\n      dup2\n        /* \"#utility.yul\":5331:5361   */\n      gt\n        /* \"#utility.yul\":5328:5445   */\n      iszero\n      tag_206\n      jumpi\n        /* \"#utility.yul\":5364:5443   */\n      tag_207\n      tag_119\n      jump\t// in\n    tag_207:\n        /* \"#utility.yul\":5328:5445   */\n    tag_206:\n        /* \"#utility.yul\":5477:5542   */\n      tag_208\n        /* \"#utility.yul\":5534:5541   */\n      dup11\n        /* \"#utility.yul\":5525:5531   */\n      dup3\n        /* \"#utility.yul\":5514:5523   */\n      dup12\n        /* \"#utility.yul\":5510:5532   */\n      add\n        /* \"#utility.yul\":5477:5542   */\n      tag_123\n      jump\t// in\n    tag_208:\n        /* \"#utility.yul\":5459:5542   */\n      swap3\n      pop\n      swap3\n      pop\n        /* \"#utility.yul\":5254:5552   */\n      pop\n        /* \"#utility.yul\":4194:5559   */\n      swap3\n      swap6\n      swap9\n      swap2\n      swap5\n      swap8\n      pop\n      swap3\n      swap6\n      pop\n      jump\t// out\n        /* \"#utility.yul\":5565:5738   */\n    tag_133:\n        /* \"#utility.yul\":5705:5730   */\n      0x4953424e20746964616b20626f6c6568206b6f736f6e67000000000000000000\n        /* \"#utility.yul\":5701:5702   */\n      0x00\n        /* \"#utility.yul\":5693:5699   */\n      dup3\n        /* \"#utility.yul\":5689:5703   */\n      add\n        /* \"#utility.yul\":5682:5731   */\n      mstore\n        /* \"#utility.yul\":5565:5738   */\n      pop\n      jump\t// out\n        /* \"#utility.yul\":5744:6110   */\n    tag_134:\n        /* \"#utility.yul\":5886:5889   */\n      0x00\n        /* \"#utility.yul\":5907:5974   */\n      tag_211\n        /* \"#utility.yul\":5971:5973   */\n      0x17\n        /* \"#utility.yul\":5966:5969   */\n      dup4\n        /* \"#utility.yul\":5907:5974   */\n      tag_125\n      jump\t// in\n    tag_211:\n        /* \"#utility.yul\":5900:5974   */\n      swap2\n      pop\n        /* \"#utility.yul\":5983:6076   */\n      tag_212\n        /* \"#utility.yul\":6072:6075   */\n      dup3\n        /* \"#utility.yul\":5983:6076   */\n      tag_133\n      jump\t// in\n    tag_212:\n        /* \"#utility.yul\":6101:6103   */\n      0x20\n        /* \"#utility.yul\":6096:6099   */\n      dup3\n        /* \"#utility.yul\":6092:6104   */\n      add\n        /* \"#utility.yul\":6085:6104   */\n      swap1\n      pop\n        /* \"#utility.yul\":5744:6110   */\n      swap2\n      swap1\n      pop\n      jump\t// out\n        /* \"#utility.yul\":6116:6535   */\n    tag_26:\n        /* \"#utility.yul\":6282:6286   */\n      0x00\n        /* \"#utility.yul\":6320:6322   */\n      0x20\n        /* \"#utility.yul\":6309:6318   */\n      dup3\n        /* \"#utility.yul\":6305:6323   */\n      add\n        /* \"#utility.yul\":6297:6323   */\n      swap1\n      pop\n        /* \"#utility.yul\":6369:6378   */\n      dup2\n        /* \"#utility.yul\":6363:6367   */\n      dup2\n        /* \"#utility.yul\":6359:6379   */\n      sub\n        /* \"#utility.yul\":6355:6356   */\n      0x00\n        /* \"#utility.yul\":6344:6353   */\n      dup4\n        /* \"#utility.yul\":6340:6357   */\n      add\n        /* \"#utility.yul\":6333:6380   */\n      mstore\n        /* \"#utility.yul\":6397:6528   */\n      tag_214\n        /* \"#utility.yul\":6523:6527   */\n      dup2\n        /* \"#utility.yul\":6397:6528   */\n      tag_134\n      jump\t// in\n    tag_214:\n        /* \"#utility.yul\":6389:6528   */\n      swap1\n      pop\n        /* \"#utility.yul\":6116:6535   */\n      swap2\n      swap1\n      pop\n      jump\t// out\n        /* \"#utility.yul\":6541:6689   */\n    tag_135:\n        /* \"#utility.yul\":6643:6654   */\n      0x00\n        /* \"#utility.yul\":6680:6683   */\n      dup2\n        /* \"#utility.yul\":6665:6683   */\n      swap1\n      pop\n        /* \"#utility.yul\":6541:6689   */\n      swap3\n      swap2\n      pop\n      pop\n      jump\t// out\n        /* \"#utility.yul\":6695:6849   */\n    tag_136:\n        /* \"#utility.yul\":6779:6785   */\n      dup3\n        /* \"#utility.yul\":6774:6777   */\n      dup2\n        /* \"#utility.yul\":6769:6772   */\n      dup4\n        /* \"#utility.yul\":6756:6786   */\n      calldatacopy\n        /* \"#utility.yul\":6841:6842   */\n      0x00\n        /* \"#utility.yul\":6832:6838   */\n      dup4\n        /* \"#utility.yul\":6827:6830   */\n      dup4\n        /* \"#utility.yul\":6823:6839   */\n      add\n        /* \"#utility.yul\":6816:6843   */\n      mstore\n        /* \"#utility.yul\":6695:6849   */\n      pop\n      pop\n      pop\n      jump\t// out\n        /* \"#utility.yul\":6879:7196   */\n    tag_137:\n        /* \"#utility.yul\":6995:6998   */\n      0x00\n        /* \"#utility.yul\":7016:7105   */\n      tag_218\n        /* \"#utility.yul\":7098:7104   */\n      dup4\n        /* \"#utility.yul\":7093:7096   */\n      dup6\n        /* \"#utility.yul\":7016:7105   */\n      tag_135\n      jump\t// in\n    tag_218:\n        /* \"#utility.yul\":7009:7105   */\n      swap4\n      pop\n        /* \"#utility.yul\":7115:7158   */\n      tag_219\n        /* \"#utility.yul\":7151:7157   */\n      dup4\n        /* \"#utility.yul\":7146:7149   */\n      dup6\n        /* \"#utility.yul\":7139:7144   */\n      dup5\n        /* \"#utility.yul\":7115:7158   */\n      tag_136\n      jump\t// in\n    tag_219:\n        /* \"#utility.yul\":7183:7189   */\n      dup3\n        /* \"#utility.yul\":7178:7181   */\n      dup5\n        /* \"#utility.yul\":7174:7190   */\n      add\n        /* \"#utility.yul\":7167:7190   */\n      swap1\n      pop\n        /* \"#utility.yul\":6879:7196   */\n      swap4\n      swap3\n      pop\n      pop\n      pop\n      jump\t// out\n        /* \"#utility.yul\":7202:7497   */\n    tag_28:\n        /* \"#utility.yul\":7344:7347   */\n      0x00\n        /* \"#utility.yul\":7366:7471   */\n      tag_221\n        /* \"#utility.yul\":7467:7470   */\n      dup3\n        /* \"#utility.yul\":7458:7464   */\n      dup5\n        /* \"#utility.yul\":7450:7456   */\n      dup7\n        /* \"#utility.yul\":7366:7471   */\n      tag_137\n      jump\t// in\n    tag_221:\n        /* \"#utility.yul\":7359:7471   */\n      swap2\n      pop\n        /* \"#utility.yul\":7488:7491   */\n      dup2\n        /* \"#utility.yul\":7481:7491   */\n      swap1\n      pop\n        /* \"#utility.yul\":7202:7497   */\n      swap4\n      swap3\n      pop\n      pop\n      pop\n      jump\t// out\n        /* \"#utility.yul\":7503:7683   */\n    tag_138:\n        /* \"#utility.yul\":7551:7628   */\n      0x4e487b7100000000000000000000000000000000000000000000000000000000\n        /* \"#utility.yul\":7548:7549   */\n      0x00\n        /* \"#utility.yul\":7541:7629   */\n      mstore\n        /* \"#utility.yul\":7648:7652   */\n      0x22\n        /* \"#utility.yul\":7645:7646   */\n      0x04\n        /* \"#utility.yul\":7638:7653   */\n      mstore\n        /* \"#utility.yul\":7672:7676   */\n      0x24\n        /* \"#utility.yul\":7669:7670   */\n      0x00\n        /* \"#utility.yul\":7662:7677   */\n      revert\n        /* \"#utility.yul\":7689:8009   */\n    tag_30:\n        /* \"#utility.yul\":7733:7739   */\n      0x00\n        /* \"#utility.yul\":7770:7771   */\n      0x02\n        /* \"#utility.yul\":7764:7768   */\n      dup3\n        /* \"#utility.yul\":7760:7772   */\n      div\n        /* \"#utility.yul\":7750:7772   */\n      swap1\n      pop\n        /* \"#utility.yul\":7817:7818   */\n      0x01\n        /* \"#utility.yul\":7811:7815   */\n      dup3\n        /* \"#utility.yul\":7807:7819   */\n      and\n        /* \"#utility.yul\":7838:7856   */\n      dup1\n        /* \"#utility.yul\":7828:7909   */\n      tag_224\n      jumpi\n        /* \"#utility.yul\":7894:7898   */\n      0x7f\n        /* \"#utility.yul\":7886:7892   */\n      dup3\n        /* \"#utility.yul\":7882:7899   */\n      and\n        /* \"#utility.yul\":7872:7899   */\n      swap2\n      pop\n        /* \"#utility.yul\":7828:7909   */\n    tag_224:\n        /* \"#utility.yul\":7956:7958   */\n      0x20\n        /* \"#utility.yul\":7948:7954   */\n      dup3\n        /* \"#utility.yul\":7945:7959   */\n      lt\n        /* \"#utility.yul\":7925:7943   */\n      dup2\n        /* \"#utility.yul\":7922:7960   */\n      sub\n        /* \"#utility.yul\":7919:8003   */\n      tag_225\n      jumpi\n        /* \"#utility.yul\":7975:7993   */\n      tag_226\n      tag_138\n      jump\t// in\n    tag_226:\n        /* \"#utility.yul\":7919:8003   */\n    tag_225:\n        /* \"#utility.yul\":7740:8009   */\n      pop\n        /* \"#utility.yul\":7689:8009   */\n      swap2\n      swap1\n      pop\n      jump\t// out\n        /* \"#utility.yul\":8015:8243   */\n    tag_139:\n        /* \"#utility.yul\":8155:8189   */\n      0x42756b752064656e67616e204953424e20746572736562757420746964616b20\n        /* \"#utility.yul\":8151:8152   */\n      0x00\n        /* \"#utility.yul\":8143:8149   */\n      dup3\n        /* \"#utility.yul\":8139:8153   */\n      add\n        /* \"#utility.yul\":8132:8190   */\n      mstore\n        /* \"#utility.yul\":8224:8235   */\n      0x646974656d756b616e0000000000000000000000000000000000000000000000\n        /* \"#utility.yul\":8219:8221   */\n      0x20\n        /* \"#utility.yul\":8211:8217   */\n      dup3\n        /* \"#utility.yul\":8207:8222   */\n      add\n        /* \"#utility.yul\":8200:8236   */\n      mstore\n        /* \"#utility.yul\":8015:8243   */\n      pop\n      jump\t// out\n        /* \"#utility.yul\":8249:8615   */\n    tag_140:\n        /* \"#utility.yul\":8391:8394   */\n      0x00\n        /* \"#utility.yul\":8412:8479   */\n      tag_229\n        /* \"#utility.yul\":8476:8478   */\n      0x29\n        /* \"#utility.yul\":8471:8474   */\n      dup4\n        /* \"#utility.yul\":8412:8479   */\n      tag_125\n      jump\t// in\n    tag_229:\n        /* \"#utility.yul\":8405:8479   */\n      swap2\n      pop\n        /* \"#utility.yul\":8488:8581   */\n      tag_230\n        /* \"#utility.yul\":8577:8580   */\n      dup3\n        /* \"#utility.yul\":8488:8581   */\n      tag_139\n      jump\t// in\n    tag_230:\n        /* \"#utility.yul\":8606:8608   */\n      0x40\n        /* \"#utility.yul\":8601:8604   */\n      dup3\n        /* \"#utility.yul\":8597:8609   */\n      add\n        /* \"#utility.yul\":8590:8609   */\n      swap1\n      pop\n        /* \"#utility.yul\":8249:8615   */\n      swap2\n      swap1\n      pop\n      jump\t// out\n        /* \"#utility.yul\":8621:9040   */\n    tag_47:\n        /* \"#utility.yul\":8787:8791   */\n      0x00\n        /* \"#utility.yul\":8825:8827   */\n      0x20\n        /* \"#utility.yul\":8814:8823   */\n      dup3\n        /* \"#utility.yul\":8810:8828   */\n      add\n        /* \"#utility.yul\":8802:8828   */\n      swap1\n      pop\n        /* \"#utility.yul\":8874:8883   */\n      dup2\n        /* \"#utility.yul\":8868:8872   */\n      dup2\n        /* \"#utility.yul\":8864:8884   */\n      sub\n        /* \"#utility.yul\":8860:8861   */\n      0x00\n        /* \"#utility.yul\":8849:8858   */\n      dup4\n        /* \"#utility.yul\":8845:8862   */\n      add\n        /* \"#utility.yul\":8838:8885   */\n      mstore\n        /* \"#utility.yul\":8902:9033   */\n      tag_232\n        /* \"#utility.yul\":9028:9032   */\n      dup2\n        /* \"#utility.yul\":8902:9033   */\n      tag_140\n      jump\t// in\n    tag_232:\n        /* \"#utility.yul\":8894:9033   */\n      swap1\n      pop\n        /* \"#utility.yul\":8621:9040   */\n      swap2\n      swap1\n      pop\n      jump\t// out\n        /* \"#utility.yul\":9046:9269   */\n    tag_141:\n        /* \"#utility.yul\":9186:9220   */\n      0x48616e79612061646d696e2079616e67206461706174206d656c616b756b616e\n        /* \"#utility.yul\":9182:9183   */\n      0x00\n        /* \"#utility.yul\":9174:9180   */\n      dup3\n        /* \"#utility.yul\":9170:9184   */\n      add\n        /* \"#utility.yul\":9163:9221   */\n      mstore\n        /* \"#utility.yul\":9255:9261   */\n      0x20696e6900000000000000000000000000000000000000000000000000000000\n        /* \"#utility.yul\":9250:9252   */\n      0x20\n        /* \"#utility.yul\":9242:9248   */\n      dup3\n        /* \"#utility.yul\":9238:9253   */\n      add\n        /* \"#utility.yul\":9231:9262   */\n      mstore\n        /* \"#utility.yul\":9046:9269   */\n      pop\n      jump\t// out\n        /* \"#utility.yul\":9275:9641   */\n    tag_142:\n        /* \"#utility.yul\":9417:9420   */\n      0x00\n        /* \"#utility.yul\":9438:9505   */\n      tag_235\n        /* \"#utility.yul\":9502:9504   */\n      0x24\n        /* \"#utility.yul\":9497:9500   */\n      dup4\n        /* \"#utility.yul\":9438:9505   */\n      tag_125\n      jump\t// in\n    tag_235:\n        /* \"#utility.yul\":9431:9505   */\n      swap2\n      pop\n        /* \"#utility.yul\":9514:9607   */\n      tag_236\n        /* \"#utility.yul\":9603:9606   */\n      dup3\n        /* \"#utility.yul\":9514:9607   */\n      tag_141\n      jump\t// in\n    tag_236:\n        /* \"#utility.yul\":9632:9634   */\n      0x40\n        /* \"#utility.yul\":9627:9630   */\n      dup3\n        /* \"#utility.yul\":9623:9635   */\n      add\n        /* \"#utility.yul\":9616:9635   */\n      swap1\n      pop\n        /* \"#utility.yul\":9275:9641   */\n      swap2\n      swap1\n      pop\n      jump\t// out\n        /* \"#utility.yul\":9647:10066   */\n    tag_51:\n        /* \"#utility.yul\":9813:9817   */\n      0x00\n        /* \"#utility.yul\":9851:9853   */\n      0x20\n        /* \"#utility.yul\":9840:9849   */\n      dup3\n        /* \"#utility.yul\":9836:9854   */\n      add\n        /* \"#utility.yul\":9828:9854   */\n      swap1\n      pop\n        /* \"#utility.yul\":9900:9909   */\n      dup2\n        /* \"#utility.yul\":9894:9898   */\n      dup2\n        /* \"#utility.yul\":9890:9910   */\n      sub\n        /* \"#utility.yul\":9886:9887   */\n      0x00\n        /* \"#utility.yul\":9875:9884   */\n      dup4\n        /* \"#utility.yul\":9871:9888   */\n      add\n        /* \"#utility.yul\":9864:9911   */\n      mstore\n        /* \"#utility.yul\":9928:10059   */\n      tag_238\n        /* \"#utility.yul\":10054:10058   */\n      dup2\n        /* \"#utility.yul\":9928:10059   */\n      tag_142\n      jump\t// in\n    tag_238:\n        /* \"#utility.yul\":9920:10059   */\n      swap1\n      pop\n        /* \"#utility.yul\":9647:10066   */\n      swap2\n      swap1\n      pop\n      jump\t// out\n        /* \"#utility.yul\":10072:10246   */\n    tag_143:\n        /* \"#utility.yul\":10212:10238   */\n      0x4a7564756c20746964616b20626f6c6568206b6f736f6e670000000000000000\n        /* \"#utility.yul\":10208:10209   */\n      0x00\n        /* \"#utility.yul\":10200:10206   */\n      dup3\n        /* \"#utility.yul\":10196:10210   */\n      add\n        /* \"#utility.yul\":10189:10239   */\n      mstore\n        /* \"#utility.yul\":10072:10246   */\n      pop\n      jump\t// out\n        /* \"#utility.yul\":10252:10618   */\n    tag_144:\n        /* \"#utility.yul\":10394:10397   */\n      0x00\n        /* \"#utility.yul\":10415:10482   */\n      tag_241\n        /* \"#utility.yul\":10479:10481   */\n      0x18\n        /* \"#utility.yul\":10474:10477   */\n      dup4\n        /* \"#utility.yul\":10415:10482   */\n      tag_125\n      jump\t// in\n    tag_241:\n        /* \"#utility.yul\":10408:10482   */\n      swap2\n      pop\n        /* \"#utility.yul\":10491:10584   */\n      tag_242\n        /* \"#utility.yul\":10580:10583   */\n      dup3\n        /* \"#utility.yul\":10491:10584   */\n      tag_143\n      jump\t// in\n    tag_242:\n        /* \"#utility.yul\":10609:10611   */\n      0x20\n        /* \"#utility.yul\":10604:10607   */\n      dup3\n        /* \"#utility.yul\":10600:10612   */\n      add\n        /* \"#utility.yul\":10593:10612   */\n      swap1\n      pop\n        /* \"#utility.yul\":10252:10618   */\n      swap2\n      swap1\n      pop\n      jump\t// out\n        /* \"#utility.yul\":10624:11043   */\n    tag_57:\n        /* \"#utility.yul\":10790:10794   */\n      0x00\n        /* \"#utility.yul\":10828:10830   */\n      0x20\n        /* \"#utility.yul\":10817:10826   */\n      dup3\n        /* \"#utility.yul\":10813:10831   */\n      add\n        /* \"#utility.yul\":10805:10831   */\n      swap1\n      pop\n        /* \"#utility.yul\":10877:10886   */\n      dup2\n        /* \"#utility.yul\":10871:10875   */\n      dup2\n        /* \"#utility.yul\":10867:10887   */\n      sub\n        /* \"#utility.yul\":10863:10864   */\n      0x00\n        /* \"#utility.yul\":10852:10861   */\n      dup4\n        /* \"#utility.yul\":10848:10865   */\n      add\n        /* \"#utility.yul\":10841:10888   */\n      mstore\n        /* \"#utility.yul\":10905:11036   */\n      tag_244\n        /* \"#utility.yul\":11031:11035   */\n      dup2\n        /* \"#utility.yul\":10905:11036   */\n      tag_144\n      jump\t// in\n    tag_244:\n        /* \"#utility.yul\":10897:11036   */\n      swap1\n      pop\n        /* \"#utility.yul\":10624:11043   */\n      swap2\n      swap1\n      pop\n      jump\t// out\n        /* \"#utility.yul\":11049:11223   */\n    tag_145:\n        /* \"#utility.yul\":11189:11215   */\n      0x546168756e206861727573206c65626968206461726920300000000000000000\n        /* \"#utility.yul\":11185:11186   */\n      0x00\n        /* \"#utility.yul\":11177:11183   */\n      dup3\n        /* \"#utility.yul\":11173:11187   */\n      add\n        /* \"#utility.yul\":11166:11216   */\n      mstore\n        /* \"#utility.yul\":11049:11223   */\n      pop\n      jump\t// out\n        /* \"#utility.yul\":11229:11595   */\n    tag_146:\n        /* \"#utility.yul\":11371:11374   */\n      0x00\n        /* \"#utility.yul\":11392:11459   */\n      tag_247\n        /* \"#utility.yul\":11456:11458   */\n      0x18\n        /* \"#utility.yul\":11451:11454   */\n      dup4\n        /* \"#utility.yul\":11392:11459   */\n      tag_125\n      jump\t// in\n    tag_247:\n        /* \"#utility.yul\":11385:11459   */\n      swap2\n      pop\n        /* \"#utility.yul\":11468:11561   */\n      tag_248\n        /* \"#utility.yul\":11557:11560   */\n      dup3\n        /* \"#utility.yul\":11468:11561   */\n      tag_145\n      jump\t// in\n    tag_248:\n        /* \"#utility.yul\":11586:11588   */\n      0x20\n        /* \"#utility.yul\":11581:11584   */\n      dup3\n        /* \"#utility.yul\":11577:11589   */\n      add\n        /* \"#utility.yul\":11570:11589   */\n      swap1\n      pop\n        /* \"#utility.yul\":11229:11595   */\n      swap2\n      swap1\n      pop\n      jump\t// out\n        /* \"#utility.yul\":11601:12020   */\n    tag_60:\n        /* \"#utility.yul\":11767:11771   */\n      0x00\n        /* \"#utility.yul\":11805:11807   */\n      0x20\n        /* \"#utility.yul\":11794:11803   */\n      dup3\n        /* \"#utility.yul\":11790:11808   */\n      add\n        /* \"#utility.yul\":11782:11808   */\n      swap1\n      pop\n        /* \"#utility.yul\":11854:11863   */\n      dup2\n        /* \"#utility.yul\":11848:11852   */\n      dup2\n        /* \"#utility.yul\":11844:11864   */\n      sub\n        /* \"#utility.yul\":11840:11841   */\n      0x00\n        /* \"#utility.yul\":11829:11838   */\n      dup4\n        /* \"#utility.yul\":11825:11842   */\n      add\n        /* \"#utility.yul\":11818:11865   */\n      mstore\n        /* \"#utility.yul\":11882:12013   */\n      tag_250\n        /* \"#utility.yul\":12008:12012   */\n      dup2\n        /* \"#utility.yul\":11882:12013   */\n      tag_146\n      jump\t// in\n    tag_250:\n        /* \"#utility.yul\":11874:12013   */\n      swap1\n      pop\n        /* \"#utility.yul\":11601:12020   */\n      swap2\n      swap1\n      pop\n      jump\t// out\n        /* \"#utility.yul\":12026:12248   */\n    tag_147:\n        /* \"#utility.yul\":12166:12200   */\n      0x42756b752064656e67616e204953424e20746572736562757420737564616820\n        /* \"#utility.yul\":12162:12163   */\n      0x00\n        /* \"#utility.yul\":12154:12160   */\n      dup3\n        /* \"#utility.yul\":12150:12164   */\n      add\n        /* \"#utility.yul\":12143:12201   */\n      mstore\n        /* \"#utility.yul\":12235:12240   */\n      0x6164610000000000000000000000000000000000000000000000000000000000\n        /* \"#utility.yul\":12230:12232   */\n      0x20\n        /* \"#utility.yul\":12222:12228   */\n      dup3\n        /* \"#utility.yul\":12218:12233   */\n      add\n        /* \"#utility.yul\":12211:12241   */\n      mstore\n        /* \"#utility.yul\":12026:12248   */\n      pop\n      jump\t// out\n        /* \"#utility.yul\":12254:12620   */\n    tag_148:\n        /* \"#utility.yul\":12396:12399   */\n      0x00\n        /* \"#utility.yul\":12417:12484   */\n      tag_253\n        /* \"#utility.yul\":12481:12483   */\n      0x23\n        /* \"#utility.yul\":12476:12479   */\n      dup4\n        /* \"#utility.yul\":12417:12484   */\n      tag_125\n      jump\t// in\n    tag_253:\n        /* \"#utility.yul\":12410:12484   */\n      swap2\n      pop\n        /* \"#utility.yul\":12493:12586   */\n      tag_254\n        /* \"#utility.yul\":12582:12585   */\n      dup3\n        /* \"#utility.yul\":12493:12586   */\n      tag_147\n      jump\t// in\n    tag_254:\n        /* \"#utility.yul\":12611:12613   */\n      0x40\n        /* \"#utility.yul\":12606:12609   */\n      dup3\n        /* \"#utility.yul\":12602:12614   */\n      add\n        /* \"#utility.yul\":12595:12614   */\n      swap1\n      pop\n        /* \"#utility.yul\":12254:12620   */\n      swap2\n      swap1\n      pop\n      jump\t// out\n        /* \"#utility.yul\":12626:13045   */\n    tag_64:\n        /* \"#utility.yul\":12792:12796   */\n      0x00\n        /* \"#utility.yul\":12830:12832   */\n      0x20\n        /* \"#utility.yul\":12819:12828   */\n      dup3\n        /* \"#utility.yul\":12815:12833   */\n      add\n        /* \"#utility.yul\":12807:12833   */\n      swap1\n      pop\n        /* \"#utility.yul\":12879:12888   */\n      dup2\n        /* \"#utility.yul\":12873:12877   */\n      dup2\n        /* \"#utility.yul\":12869:12889   */\n      sub\n        /* \"#utility.yul\":12865:12866   */\n      0x00\n        /* \"#utility.yul\":12854:12863   */\n      dup4\n        /* \"#utility.yul\":12850:12867   */\n      add\n        /* \"#utility.yul\":12843:12890   */\n      mstore\n        /* \"#utility.yul\":12907:13038   */\n      tag_256\n        /* \"#utility.yul\":13033:13037   */\n      dup2\n        /* \"#utility.yul\":12907:13038   */\n      tag_148\n      jump\t// in\n    tag_256:\n        /* \"#utility.yul\":12899:13038   */\n      swap1\n      pop\n        /* \"#utility.yul\":12626:13045   */\n      swap2\n      swap1\n      pop\n      jump\t// out\n        /* \"#utility.yul\":13075:13379   */\n    tag_149:\n        /* \"#utility.yul\":13173:13176   */\n      0x00\n        /* \"#utility.yul\":13194:13265   */\n      tag_258\n        /* \"#utility.yul\":13258:13264   */\n      dup4\n        /* \"#utility.yul\":13253:13256   */\n      dup6\n        /* \"#utility.yul\":13194:13265   */\n      tag_125\n      jump\t// in\n    tag_258:\n        /* \"#utility.yul\":13187:13265   */\n      swap4\n      pop\n        /* \"#utility.yul\":13275:13318   */\n      tag_259\n        /* \"#utility.yul\":13311:13317   */\n      dup4\n        /* \"#utility.yul\":13306:13309   */\n      dup6\n        /* \"#utility.yul\":13299:13304   */\n      dup5\n        /* \"#utility.yul\":13275:13318   */\n      tag_136\n      jump\t// in\n    tag_259:\n        /* \"#utility.yul\":13343:13372   */\n      tag_260\n        /* \"#utility.yul\":13365:13371   */\n      dup4\n        /* \"#utility.yul\":13343:13372   */\n      tag_127\n      jump\t// in\n    tag_260:\n        /* \"#utility.yul\":13338:13341   */\n      dup5\n        /* \"#utility.yul\":13334:13373   */\n      add\n        /* \"#utility.yul\":13327:13373   */\n      swap1\n      pop\n        /* \"#utility.yul\":13075:13379   */\n      swap4\n      swap3\n      pop\n      pop\n      pop\n      jump\t// out\n        /* \"#utility.yul\":13385:14049   */\n    tag_72:\n        /* \"#utility.yul\":13594:13598   */\n      0x00\n        /* \"#utility.yul\":13632:13634   */\n      0x60\n        /* \"#utility.yul\":13621:13630   */\n      dup3\n        /* \"#utility.yul\":13617:13635   */\n      add\n        /* \"#utility.yul\":13609:13635   */\n      swap1\n      pop\n        /* \"#utility.yul\":13681:13690   */\n      dup2\n        /* \"#utility.yul\":13675:13679   */\n      dup2\n        /* \"#utility.yul\":13671:13691   */\n      sub\n        /* \"#utility.yul\":13667:13668   */\n      0x00\n        /* \"#utility.yul\":13656:13665   */\n      dup4\n        /* \"#utility.yul\":13652:13669   */\n      add\n        /* \"#utility.yul\":13645:13692   */\n      mstore\n        /* \"#utility.yul\":13709:13797   */\n      tag_262\n        /* \"#utility.yul\":13792:13796   */\n      dup2\n        /* \"#utility.yul\":13783:13789   */\n      dup8\n        /* \"#utility.yul\":13775:13781   */\n      dup10\n        /* \"#utility.yul\":13709:13797   */\n      tag_149\n      jump\t// in\n    tag_262:\n        /* \"#utility.yul\":13701:13797   */\n      swap1\n      pop\n        /* \"#utility.yul\":13807:13879   */\n      tag_263\n        /* \"#utility.yul\":13875:13877   */\n      0x20\n        /* \"#utility.yul\":13864:13873   */\n      dup4\n        /* \"#utility.yul\":13860:13878   */\n      add\n        /* \"#utility.yul\":13851:13857   */\n      dup7\n        /* \"#utility.yul\":13807:13879   */\n      tag_130\n      jump\t// in\n    tag_263:\n        /* \"#utility.yul\":13926:13935   */\n      dup2\n        /* \"#utility.yul\":13920:13924   */\n      dup2\n        /* \"#utility.yul\":13916:13936   */\n      sub\n        /* \"#utility.yul\":13911:13913   */\n      0x40\n        /* \"#utility.yul\":13900:13909   */\n      dup4\n        /* \"#utility.yul\":13896:13914   */\n      add\n        /* \"#utility.yul\":13889:13937   */\n      mstore\n        /* \"#utility.yul\":13954:14042   */\n      tag_264\n        /* \"#utility.yul\":14037:14041   */\n      dup2\n        /* \"#utility.yul\":14028:14034   */\n      dup5\n        /* \"#utility.yul\":14020:14026   */\n      dup7\n        /* \"#utility.yul\":13954:14042   */\n      tag_149\n      jump\t// in\n    tag_264:\n        /* \"#utility.yul\":13946:14042   */\n      swap1\n      pop\n        /* \"#utility.yul\":13385:14049   */\n      swap7\n      swap6\n      pop\n      pop\n      pop\n      pop\n      pop\n      pop\n      jump\t// out\n\n    auxdata: 0xa2646970667358221220d564d3db330adb132b6db8035efcb88ebee1bb00dd1c9ccc3dcc5c4eb30910a264736f6c634300080d0033\n}\n",
				"bytecode": {
					"linkReferences": {},
					"object": "608060405234801561001057600080fd5b5033600160006101000a81548173ffffffffffffffffffffffffffffffffffffffff021916908373ffffffffffffffffffffffffffffffffffffffff160217905550611403806100616000396000f3fe608060405234801561001057600080fd5b506004361061004c5760003560e01c8063233d280c14610051578063598e1455146100845780638cd35f49146100a0578063f9637523146100bc575b600080fd5b61006b60048036038101906100669190610d57565b6100d8565b60405161007b9493929190610e56565b60405180910390f35b61009e60048036038101906100999190610edc565b610380565b005b6100ba60048036038101906100b59190610edc565b61071b565b005b6100d660048036038101906100d19190610d57565b610a27565b005b6060806000606060008686905011610125576040517f08c379a000000000000000000000000000000000000000000000000000000000815260040161011c90610ff1565b60405180910390fd5b6000808787604051610138929190611050565b908152602001604051809103902060405180608001604052908160008201805461016190611098565b80601f016020809104026020016040519081016040528092919081815260200182805461018d90611098565b80156101da5780601f106101af576101008083540402835291602001916101da565b820191906000526020600020905b8154815290600101906020018083116101bd57829003601f168201915b505050505081526020016001820180546101f390611098565b80601f016020809104026020016040519081016040528092919081815260200182805461021f90611098565b801561026c5780601f106102415761010080835404028352916020019161026c565b820191906000526020600020905b81548152906001019060200180831161024f57829003601f168201915b505050505081526020016002820154815260200160038201805461028f90611098565b80601f01602080910402602001604051908101604052809291908181526020018280546102bb90611098565b80156103085780601f106102dd57610100808354040283529160200191610308565b820191906000526020600020905b8154815290600101906020018083116102eb57829003601f168201915b5050505050815250509050600081604001511161035a576040517f08c379a00000000000000000000000000000000000000000000000000000000081526004016103519061113b565b60405180910390fd5b806000015181602001518260400151836060015194509450945094505092959194509250565b600160009054906101000a900473ffffffffffffffffffffffffffffffffffffffff1673ffffffffffffffffffffffffffffffffffffffff163373ffffffffffffffffffffffffffffffffffffffff1614610410576040517f08c379a0000000000000000000000000000000000000000000000000000000008152600401610407906111cd565b60405180910390fd5b60008787905011610456576040517f08c379a000000000000000000000000000000000000000000000000000000000815260040161044d90610ff1565b60405180910390fd5b6000858590501161049c576040517f08c379a000000000000000000000000000000000000000000000000000000000815260040161049390611239565b60405180910390fd5b600083116104df576040517f08c379a00000000000000000000000000000000000000000000000000000000081526004016104d6906112a5565b60405180910390fd5b60008088886040516104f2929190611050565b90815260200160405180910390206002015414610544576040517f08c379a000000000000000000000000000000000000000000000000000000000815260040161053b90611337565b60405180910390fd5b6000604051806080016040528089898080601f016020809104026020016040519081016040528093929190818152602001838380828437600081840152601f19601f82011690508083019250505050505050815260200187878080601f016020809104026020016040519081016040528093929190818152602001838380828437600081840152601f19601f82011690508083019250505050505050815260200185815260200184848080601f016020809104026020016040519081016040528093929190818152602001838380828437600081840152601f19601f8201169050808301925050505050505081525090508060008989604051610648929190611050565b90815260200160405180910390206000820151816000019080519060200190610672929190610c05565b50602082015181600101908051906020019061068f929190610c05565b506040820151816002015560608201518160030190805190602001906106b6929190610c05565b5090505087876040516106ca929190611050565b60405180910390207f64fff20dbda90e6afeec43591f51eabd68b1b87b7aa709c00f21070707e3ea138787878787604051610709959493929190611384565b60405180910390a25050505050505050565b600160009054906101000a900473ffffffffffffffffffffffffffffffffffffffff1673ffffffffffffffffffffffffffffffffffffffff163373ffffffffffffffffffffffffffffffffffffffff16146107ab576040517f08c379a00000000000000000000000000000000000000000000000000000000081526004016107a2906111cd565b60405180910390fd5b600087879050116107f1576040517f08c379a00000000000000000000000000000000000000000000000000000000081526004016107e890610ff1565b60405180910390fd5b6000808888604051610804929190611050565b90815260200160405180910390206002015411610856576040517f08c379a000000000000000000000000000000000000000000000000000000000815260040161084d9061113b565b60405180910390fd5b604051806080016040528088888080601f016020809104026020016040519081016040528093929190818152602001838380828437600081840152601f19601f82011690508083019250505050505050815260200186868080601f016020809104026020016040519081016040528093929190818152602001838380828437600081840152601f19601f82011690508083019250505050505050815260200184815260200183838080601f016020809104026020016040519081016040528093929190818152602001838380828437600081840152601f19601f8201169050808301925050505050505081525060008888604051610955929190611050565b9081526020016040518091039020600082015181600001908051906020019061097f929190610c05565b50602082015181600101908051906020019061099c929190610c05565b506040820151816002015560608201518160030190805190602001906109c3929190610c05565b5090505086866040516109d7929190611050565b60405180910390207f1d6e9ac6456a38d154574dc5f64d9a9ec5ccb282574cd3a2b4d152ea8261edc38686868686604051610a16959493929190611384565b60405180910390a250505050505050565b600160009054906101000a900473ffffffffffffffffffffffffffffffffffffffff1673ffffffffffffffffffffffffffffffffffffffff163373ffffffffffffffffffffffffffffffffffffffff1614610ab7576040517f08c379a0000000000000000000000000000000000000000000000000000000008152600401610aae906111cd565b60405180910390fd5b60008282905011610afd576040517f08c379a0000000000000000000000000000000000000000000000000000000008152600401610af490610ff1565b60405180910390fd5b6000808383604051610b10929190611050565b90815260200160405180910390206002015411610b62576040517f08c379a0000000000000000000000000000000000000000000000000000000008152600401610b599061113b565b60405180910390fd5b60008282604051610b74929190611050565b908152602001604051809103902060008082016000610b939190610c8b565b600182016000610ba39190610c8b565b6002820160009055600382016000610bbb9190610c8b565b50508181604051610bcd929190611050565b60405180910390207f1e249c00741a4837800f8fb78a8a6024d8cddf10bac1f001258305a2644e169a60405160405180910390a25050565b828054610c1190611098565b90600052602060002090601f016020900481019282610c335760008555610c7a565b82601f10610c4c57805160ff1916838001178555610c7a565b82800160010185558215610c7a579182015b82811115610c79578251825591602001919060010190610c5e565b5b509050610c879190610ccb565b5090565b508054610c9790611098565b6000825580601f10610ca95750610cc8565b601f016020900490600052602060002090810190610cc79190610ccb565b5b50565b5b80821115610ce4576000816000905550600101610ccc565b5090565b600080fd5b600080fd5b600080fd5b600080fd5b600080fd5b60008083601f840112610d1757610d16610cf2565b5b8235905067ffffffffffffffff811115610d3457610d33610cf7565b5b602083019150836001820283011115610d5057610d4f610cfc565b5b9250929050565b60008060208385031215610d6e57610d6d610ce8565b5b600083013567ffffffffffffffff811115610d8c57610d8b610ced565b5b610d9885828601610d01565b92509250509250929050565b600081519050919050565b600082825260208201905092915050565b60005b83811015610dde578082015181840152602081019050610dc3565b83811115610ded576000848401525b50505050565b6000601f19601f8301169050919050565b6000610e0f82610da4565b610e198185610daf565b9350610e29818560208601610dc0565b610e3281610df3565b840191505092915050565b6000819050919050565b610e5081610e3d565b82525050565b60006080820190508181036000830152610e708187610e04565b90508181036020830152610e848186610e04565b9050610e936040830185610e47565b8181036060830152610ea58184610e04565b905095945050505050565b610eb981610e3d565b8114610ec457600080fd5b50565b600081359050610ed681610eb0565b92915050565b60008060008060008060006080888a031215610efb57610efa610ce8565b5b600088013567ffffffffffffffff811115610f1957610f18610ced565b5b610f258a828b01610d01565b9750975050602088013567ffffffffffffffff811115610f4857610f47610ced565b5b610f548a828b01610d01565b95509550506040610f678a828b01610ec7565b935050606088013567ffffffffffffffff811115610f8857610f87610ced565b5b610f948a828b01610d01565b925092505092959891949750929550565b7f4953424e20746964616b20626f6c6568206b6f736f6e67000000000000000000600082015250565b6000610fdb601783610daf565b9150610fe682610fa5565b602082019050919050565b6000602082019050818103600083015261100a81610fce565b9050919050565b600081905092915050565b82818337600083830152505050565b60006110378385611011565b935061104483858461101c565b82840190509392505050565b600061105d82848661102b565b91508190509392505050565b7f4e487b7100000000000000000000000000000000000000000000000000000000600052602260045260246000fd5b600060028204905060018216806110b057607f821691505b6020821081036110c3576110c2611069565b5b50919050565b7f42756b752064656e67616e204953424e20746572736562757420746964616b2060008201527f646974656d756b616e0000000000000000000000000000000000000000000000602082015250565b6000611125602983610daf565b9150611130826110c9565b604082019050919050565b6000602082019050818103600083015261115481611118565b9050919050565b7f48616e79612061646d696e2079616e67206461706174206d656c616b756b616e60008201527f20696e6900000000000000000000000000000000000000000000000000000000602082015250565b60006111b7602483610daf565b91506111c28261115b565b604082019050919050565b600060208201905081810360008301526111e6816111aa565b9050919050565b7f4a7564756c20746964616b20626f6c6568206b6f736f6e670000000000000000600082015250565b6000611223601883610daf565b915061122e826111ed565b602082019050919050565b6000602082019050818103600083015261125281611216565b9050919050565b7f546168756e206861727573206c65626968206461726920300000000000000000600082015250565b600061128f601883610daf565b915061129a82611259565b602082019050919050565b600060208201905081810360008301526112be81611282565b9050919050565b7f42756b752064656e67616e204953424e2074657273656275742073756461682060008201527f6164610000000000000000000000000000000000000000000000000000000000602082015250565b6000611321602383610daf565b915061132c826112c5565b604082019050919050565b6000602082019050818103600083015261135081611314565b9050919050565b60006113638385610daf565b935061137083858461101c565b61137983610df3565b840190509392505050565b6000606082019050818103600083015261139f818789611357565b90506113ae6020830186610e47565b81810360408301526113c1818486611357565b9050969550505050505056fea2646970667358221220d564d3db330adb132b6db8035efcb88ebee1bb00dd1c9ccc3dcc5c4eb30910a264736f6c634300080d0033",
					"opcodes": "PUSH1 0x80 PUSH1 0x40 MSTORE CALLVALUE DUP1 ISZERO PUSH2 0x10 JUMPI PUSH1 0x0 DUP1 REVERT JUMPDEST POP CALLER PUSH1 0x1 PUSH1 0x0 PUSH2 0x100 EXP DUP2 SLOAD DUP2 PUSH20 0xFFFFFFFFFFFFFFFFFFFFFFFFFFFFFFFFFFFFFFFF MUL NOT AND SWAP1 DUP4 PUSH20 0xFFFFFFFFFFFFFFFFFFFFFFFFFFFFFFFFFFFFFFFF AND MUL OR SWAP1 SSTORE POP PUSH2 0x1403 DUP1 PUSH2 0x61 PUSH1 0x0 CODECOPY PUSH1 0x0 RETURN INVALID PUSH1 0x80 PUSH1 0x40 MSTORE CALLVALUE DUP1 ISZERO PUSH2 0x10 JUMPI PUSH1 0x0 DUP1 REVERT JUMPDEST POP PUSH1 0x4 CALLDATASIZE LT PUSH2 0x4C JUMPI PUSH1 0x0 CALLDATALOAD PUSH1 0xE0 SHR DUP1 PUSH4 0x233D280C EQ PUSH2 0x51 JUMPI DUP1 PUSH4 0x598E1455 EQ PUSH2 0x84 JUMPI DUP1 PUSH4 0x8CD35F49 EQ PUSH2 0xA0 JUMPI DUP1 PUSH4 0xF9637523 EQ PUSH2 0xBC JUMPI JUMPDEST PUSH1 0x0 DUP1 REVERT JUMPDEST PUSH2 0x6B PUSH1 0x4 DUP1 CALLDATASIZE SUB DUP2 ADD SWAP1 PUSH2 0x66 SWAP2 SWAP1 PUSH2 0xD57 JUMP JUMPDEST PUSH2 0xD8 JUMP JUMPDEST PUSH1 0x40 MLOAD PUSH2 0x7B SWAP5 SWAP4 SWAP3 SWAP2 SWAP1 PUSH2 0xE56 JUMP JUMPDEST PUSH1 0x40 MLOAD DUP1 SWAP2 SUB SWAP1 RETURN JUMPDEST PUSH2 0x9E PUSH1 0x4 DUP1 CALLDATASIZE SUB DUP2 ADD SWAP1 PUSH2 0x99 SWAP2 SWAP1 PUSH2 0xEDC JUMP JUMPDEST PUSH2 0x380 JUMP JUMPDEST STOP JUMPDEST PUSH2 0xBA PUSH1 0x4 DUP1 CALLDATASIZE SUB DUP2 ADD SWAP1 PUSH2 0xB5 SWAP2 SWAP1 PUSH2 0xEDC JUMP JUMPDEST PUSH2 0x71B JUMP JUMPDEST STOP JUMPDEST PUSH2 0xD6 PUSH1 0x4 DUP1 CALLDATASIZE SUB DUP2 ADD SWAP1 PUSH2 0xD1 SWAP2 SWAP1 PUSH2 0xD57 JUMP JUMPDEST PUSH2 0xA27 JUMP JUMPDEST STOP JUMPDEST PUSH1 0x60 DUP1 PUSH1 0x0 PUSH1 0x60 PUSH1 0x0 DUP7 DUP7 SWAP1 POP GT PUSH2 0x125 JUMPI PUSH1 0x40 MLOAD PUSH32 0x8C379A000000000000000000000000000000000000000000000000000000000 DUP2 MSTORE PUSH1 0x4 ADD PUSH2 0x11C SWAP1 PUSH2 0xFF1 JUMP JUMPDEST PUSH1 0x40 MLOAD DUP1 SWAP2 SUB SWAP1 REVERT JUMPDEST PUSH1 0x0 DUP1 DUP8 DUP8 PUSH1 0x40 MLOAD PUSH2 0x138 SWAP3 SWAP2 SWAP1 PUSH2 0x1050 JUMP JUMPDEST SWAP1 DUP2 MSTORE PUSH1 0x20 ADD PUSH1 0x40 MLOAD DUP1 SWAP2 SUB SWAP1 KECCAK256 PUSH1 0x40 MLOAD DUP1 PUSH1 0x80 ADD PUSH1 0x40 MSTORE SWAP1 DUP2 PUSH1 0x0 DUP3 ADD DUP1 SLOAD PUSH2 0x161 SWAP1 PUSH2 0x1098 JUMP JUMPDEST DUP1 PUSH1 0x1F ADD PUSH1 0x20 DUP1 SWAP2 DIV MUL PUSH1 0x20 ADD PUSH1 0x40 MLOAD SWAP1 DUP2 ADD PUSH1 0x40 MSTORE DUP1 SWAP3 SWAP2 SWAP1 DUP2 DUP2 MSTORE PUSH1 0x20 ADD DUP3 DUP1 SLOAD PUSH2 0x18D SWAP1 PUSH2 0x1098 JUMP JUMPDEST DUP1 ISZERO PUSH2 0x1DA JUMPI DUP1 PUSH1 0x1F LT PUSH2 0x1AF JUMPI PUSH2 0x100 DUP1 DUP4 SLOAD DIV MUL DUP4 MSTORE SWAP2 PUSH1 0x20 ADD SWAP2 PUSH2 0x1DA JUMP JUMPDEST DUP3 ADD SWAP2 SWAP1 PUSH1 0x0 MSTORE PUSH1 0x20 PUSH1 0x0 KECCAK256 SWAP1 JUMPDEST DUP2 SLOAD DUP2 MSTORE SWAP1 PUSH1 0x1 ADD SWAP1 PUSH1 0x20 ADD DUP1 DUP4 GT PUSH2 0x1BD JUMPI DUP3 SWAP1 SUB PUSH1 0x1F AND DUP3 ADD SWAP2 JUMPDEST POP POP POP POP POP DUP2 MSTORE PUSH1 0x20 ADD PUSH1 0x1 DUP3 ADD DUP1 SLOAD PUSH2 0x1F3 SWAP1 PUSH2 0x1098 JUMP JUMPDEST DUP1 PUSH1 0x1F ADD PUSH1 0x20 DUP1 SWAP2 DIV MUL PUSH1 0x20 ADD PUSH1 0x40 MLOAD SWAP1 DUP2 ADD PUSH1 0x40 MSTORE DUP1 SWAP3 SWAP2 SWAP1 DUP2 DUP2 MSTORE PUSH1 0x20 ADD DUP3 DUP1 SLOAD PUSH2 0x21F SWAP1 PUSH2 0x1098 JUMP JUMPDEST DUP1 ISZERO PUSH2 0x26C JUMPI DUP1 PUSH1 0x1F LT PUSH2 0x241 JUMPI PUSH2 0x100 DUP1 DUP4 SLOAD DIV MUL DUP4 MSTORE SWAP2 PUSH1 0x20 ADD SWAP2 PUSH2 0x26C JUMP JUMPDEST DUP3 ADD SWAP2 SWAP1 PUSH1 0x0 MSTORE PUSH1 0x20 PUSH1 0x0 KECCAK256 SWAP1 JUMPDEST DUP2 SLOAD DUP2 MSTORE SWAP1 PUSH1 0x1 ADD SWAP1 PUSH1 0x20 ADD DUP1 DUP4 GT PUSH2 0x24F JUMPI DUP3 SWAP1 SUB PUSH1 0x1F AND DUP3 ADD SWAP2 JUMPDEST POP POP POP POP POP DUP2 MSTORE PUSH1 0x20 ADD PUSH1 0x2 DUP3 ADD SLOAD DUP2 MSTORE PUSH1 0x20 ADD PUSH1 0x3 DUP3 ADD DUP1 SLOAD PUSH2 0x28F SWAP1 PUSH2 0x1098 JUMP JUMPDEST DUP1 PUSH1 0x1F ADD PUSH1 0x20 DUP1 SWAP2 DIV MUL PUSH1 0x20 ADD PUSH1 0x40 MLOAD SWAP1 DUP2 ADD PUSH1 0x40 MSTORE DUP1 SWAP3 SWAP2 SWAP1 DUP2 DUP2 MSTORE PUSH1 0x20 ADD DUP3 DUP1 SLOAD PUSH2 0x2BB SWAP1 PUSH2 0x1098 JUMP JUMPDEST DUP1 ISZERO PUSH2 0x308 JUMPI DUP1 PUSH1 0x1F LT PUSH2 0x2DD JUMPI PUSH2 0x100 DUP1 DUP4 SLOAD DIV MUL DUP4 MSTORE SWAP2 PUSH1 0x20 ADD SWAP2 PUSH2 0x308 JUMP JUMPDEST DUP3 ADD SWAP2 SWAP1 PUSH1 0x0 MSTORE PUSH1 0x20 PUSH1 0x0 KECCAK256 SWAP1 JUMPDEST DUP2 SLOAD DUP2 MSTORE SWAP1 PUSH1 0x1 ADD SWAP1 PUSH1 0x20 ADD DUP1 DUP4 GT PUSH2 0x2EB JUMPI DUP3 SWAP1 SUB PUSH1 0x1F AND DUP3 ADD SWAP2 JUMPDEST POP POP POP POP POP DUP2 MSTORE POP POP SWAP1 POP PUSH1 0x0 DUP2 PUSH1 0x40 ADD MLOAD GT PUSH2 0x35A JUMPI PUSH1 0x40 MLOAD PUSH32 0x8C379A000000000000000000000000000000000000000000000000000000000 DUP2 MSTORE PUSH1 0x4 ADD PUSH2 0x351 SWAP1 PUSH2 0x113B JUMP JUMPDEST PUSH1 0x40 MLOAD DUP1 SWAP2 SUB SWAP1 REVERT JUMPDEST DUP1 PUSH1 0x0 ADD MLOAD DUP2 PUSH1 0x20 ADD MLOAD DUP3 PUSH1 0x40 ADD MLOAD DUP4 PUSH1 0x60 ADD MLOAD SWAP5 POP SWAP5 POP SWAP5 POP SWAP5 POP POP SWAP3 SWAP6 SWAP2 SWAP5 POP SWAP3 POP JUMP JUMPDEST PUSH1 0x1 PUSH1 0x0 SWAP1 SLOAD SWAP1 PUSH2 0x100 EXP SWAP1 DIV PUSH20 0xFFFFFFFFFFFFFFFFFFFFFFFFFFFFFFFFFFFFFFFF AND PUSH20 0xFFFFFFFFFFFFFFFFFFFFFFFFFFFFFFFFFFFFFFFF AND CALLER PUSH20 0xFFFFFFFFFFFFFFFFFFFFFFFFFFFFFFFFFFFFFFFF AND EQ PUSH2 0x410 JUMPI PUSH1 0x40 MLOAD PUSH32 0x8C379A000000000000000000000000000000000000000000000000000000000 DUP2 MSTORE PUSH1 0x4 ADD PUSH2 0x407 SWAP1 PUSH2 0x11CD JUMP JUMPDEST PUSH1 0x40 MLOAD DUP1 SWAP2 SUB SWAP1 REVERT JUMPDEST PUSH1 0x0 DUP8 DUP8 SWAP1 POP GT PUSH2 0x456 JUMPI PUSH1 0x40 MLOAD PUSH32 0x8C379A000000000000000000000000000000000000000000000000000000000 DUP2 MSTORE PUSH1 0x4 ADD PUSH2 0x44D SWAP1 PUSH2 0xFF1 JUMP JUMPDEST PUSH1 0x40 MLOAD DUP1 SWAP2 SUB SWAP1 REVERT JUMPDEST PUSH1 0x0 DUP6 DUP6 SWAP1 POP GT PUSH2 0x49C JUMPI PUSH1 0x40 MLOAD PUSH32 0x8C379A000000000000000000000000000000000000000000000000000000000 DUP2 MSTORE PUSH1 0x4 ADD PUSH2 0x493 SWAP1 PUSH2 0x1239 JUMP JUMPDEST PUSH1 0x40 MLOAD DUP1 SWAP2 SUB SWAP1 REVERT JUMPDEST PUSH1 0x0 DUP4 GT PUSH2 0x4DF JUMPI PUSH1 0x40 MLOAD PUSH32 0x8C379A000000000000000000000000000000000000000000000000000000000 DUP2 MSTORE PUSH1 0x4 ADD PUSH2 0x4D6 SWAP1 PUSH2 0x12A5 JUMP JUMPDEST PUSH1 0x40 MLOAD DUP1 SWAP2 SUB SWAP1 REVERT JUMPDEST PUSH1 0x0 DUP1 DUP9 DUP9 PUSH1 0x40 MLOAD PUSH2 0x4F2 SWAP3 SWAP2 SWAP1 PUSH2 0x1050 JUMP JUMPDEST SWAP1 DUP2 MSTORE PUSH1 0x20 ADD PUSH1 0x40 MLOAD DUP1 SWAP2 SUB SWAP1 KECCAK256 PUSH1 0x2 ADD SLOAD EQ PUSH2 0x544 JUMPI PUSH1 0x40 MLOAD PUSH32 0x8C379A000000000000000000000000000000000000000000000000000000000 DUP2 MSTORE PUSH1 0x4 ADD PUSH2 0x53B SWAP1 PUSH2 0x1337 JUMP JUMPDEST PUSH1 0x40 MLOAD DUP1 SWAP2 SUB SWAP1 REVERT JUMPDEST PUSH1 0x0 PUSH1 0x40 MLOAD DUP1 PUSH1 0x80 ADD PUSH1 0x40 MSTORE DUP1 DUP10 DUP10 DUP1 DUP1 PUSH1 0x1F ADD PUSH1 0x20 DUP1 SWAP2 DIV MUL PUSH1 0x20 ADD PUSH1 0x40 MLOAD SWAP1 DUP2 ADD PUSH1 0x40 MSTORE DUP1 SWAP4 SWAP3 SWAP2 SWAP1 DUP2 DUP2 MSTORE PUSH1 0x20 ADD DUP4 DUP4 DUP1 DUP3 DUP5 CALLDATACOPY PUSH1 0x0 DUP2 DUP5 ADD MSTORE PUSH1 0x1F NOT PUSH1 0x1F DUP3 ADD AND SWAP1 POP DUP1 DUP4 ADD SWAP3 POP POP POP POP POP POP POP DUP2 MSTORE PUSH1 0x20 ADD DUP8 DUP8 DUP1 DUP1 PUSH1 0x1F ADD PUSH1 0x20 DUP1 SWAP2 DIV MUL PUSH1 0x20 ADD PUSH1 0x40 MLOAD SWAP1 DUP2 ADD PUSH1 0x40 MSTORE DUP1 SWAP4 SWAP3 SWAP2 SWAP1 DUP2 DUP2 MSTORE PUSH1 0x20 ADD DUP4 DUP4 DUP1 DUP3 DUP5 CALLDATACOPY PUSH1 0x0 DUP2 DUP5 ADD MSTORE PUSH1 0x1F NOT PUSH1 0x1F DUP3 ADD AND SWAP1 POP DUP1 DUP4 ADD SWAP3 POP POP POP POP POP POP POP DUP2 MSTORE PUSH1 0x20 ADD DUP6 DUP2 MSTORE PUSH1 0x20 ADD DUP5 DUP5 DUP1 DUP1 PUSH1 0x1F ADD PUSH1 0x20 DUP1 SWAP2 DIV MUL PUSH1 0x20 ADD PUSH1 0x40 MLOAD SWAP1 DUP2 ADD PUSH1 0x40 MSTORE DUP1 SWAP4 SWAP3 SWAP2 SWAP1 DUP2 DUP2 MSTORE PUSH1 0x20 ADD DUP4 DUP4 DUP1 DUP3 DUP5 CALLDATACOPY PUSH1 0x0 DUP2 DUP5 ADD MSTORE PUSH1 0x1F NOT PUSH1 0x1F DUP3 ADD AND SWAP1 POP DUP1 DUP4 ADD SWAP3 POP POP POP POP POP POP POP DUP2 MSTORE POP SWAP1 POP DUP1 PUSH1 0x0 DUP10 DUP10 PUSH1 0x40 MLOAD PUSH2 0x648 SWAP3 SWAP2 SWAP1 PUSH2 0x1050 JUMP JUMPDEST SWAP1 DUP2 MSTORE PUSH1 0x20 ADD PUSH1 0x40 MLOAD DUP1 SWAP2 SUB SWAP1 KECCAK256 PUSH1 0x0 DUP3 ADD MLOAD DUP2 PUSH1 0x0 ADD SWAP1 DUP1 MLOAD SWAP1 PUSH1 0x20 ADD SWAP1 PUSH2 0x672 SWAP3 SWAP2 SWAP1 PUSH2 0xC05 JUMP JUMPDEST POP PUSH1 0x20 DUP3 ADD MLOAD DUP2 PUSH1 0x1 ADD SWAP1 DUP1 MLOAD SWAP1 PUSH1 0x20 ADD SWAP1 PUSH2 0x68F SWAP3 SWAP2 SWAP1 PUSH2 0xC05 JUMP JUMPDEST POP PUSH1 0x40 DUP3 ADD MLOAD DUP2 PUSH1 0x2 ADD SSTORE PUSH1 0x60 DUP3 ADD MLOAD DUP2 PUSH1 0x3 ADD SWAP1 DUP1 MLOAD SWAP1 PUSH1 0x20 ADD SWAP1 PUSH2 0x6B6 SWAP3 SWAP2 SWAP1 PUSH2 0xC05 JUMP JUMPDEST POP SWAP1 POP POP DUP8 DUP8 PUSH1 0x40 MLOAD PUSH2 0x6CA SWAP3 SWAP2 SWAP1 PUSH2 0x1050 JUMP JUMPDEST PUSH1 0x40 MLOAD DUP1 SWAP2 SUB SWAP1 KECCAK256 PUSH32 0x64FFF20DBDA90E6AFEEC43591F51EABD68B1B87B7AA709C00F21070707E3EA13 DUP8 DUP8 DUP8 DUP8 DUP8 PUSH1 0x40 MLOAD PUSH2 0x709 SWAP6 SWAP5 SWAP4 SWAP3 SWAP2 SWAP1 PUSH2 0x1384 JUMP JUMPDEST PUSH1 0x40 MLOAD DUP1 SWAP2 SUB SWAP1 LOG2 POP POP POP POP POP POP POP POP JUMP JUMPDEST PUSH1 0x1 PUSH1 0x0 SWAP1 SLOAD SWAP1 PUSH2 0x100 EXP SWAP1 DIV PUSH20 0xFFFFFFFFFFFFFFFFFFFFFFFFFFFFFFFFFFFFFFFF AND PUSH20 0xFFFFFFFFFFFFFFFFFFFFFFFFFFFFFFFFFFFFFFFF AND CALLER PUSH20 0xFFFFFFFFFFFFFFFFFFFFFFFFFFFFFFFFFFFFFFFF AND EQ PUSH2 0x7AB JUMPI PUSH1 0x40 MLOAD PUSH32 0x8C379A000000000000000000000000000000000000000000000000000000000 DUP2 MSTORE PUSH1 0x4 ADD PUSH2 0x7A2 SWAP1 PUSH2 0x11CD JUMP JUMPDEST PUSH1 0x40 MLOAD DUP1 SWAP2 SUB SWAP1 REVERT JUMPDEST PUSH1 0x0 DUP8 DUP8 SWAP1 POP GT PUSH2 0x7F1 JUMPI PUSH1 0x40 MLOAD PUSH32 0x8C379A000000000000000000000000000000000000000000000000000000000 DUP2 MSTORE PUSH1 0x4 ADD PUSH2 0x7E8 SWAP1 PUSH2 0xFF1 JUMP JUMPDEST PUSH1 0x40 MLOAD DUP1 SWAP2 SUB SWAP1 REVERT JUMPDEST PUSH1 0x0 DUP1 DUP9 DUP9 PUSH1 0x40 MLOAD PUSH2 0x804 SWAP3 SWAP2 SWAP1 PUSH2 0x1050 JUMP JUMPDEST SWAP1 DUP2 MSTORE PUSH1 0x20 ADD PUSH1 0x40 MLOAD DUP1 SWAP2 SUB SWAP1 KECCAK256 PUSH1 0x2 ADD SLOAD GT PUSH2 0x856 JUMPI PUSH1 0x40 MLOAD PUSH32 0x8C379A000000000000000000000000000000000000000000000000000000000 DUP2 MSTORE PUSH1 0x4 ADD PUSH2 0x84D SWAP1 PUSH2 0x113B JUMP JUMPDEST PUSH1 0x40 MLOAD DUP1 SWAP2 SUB SWAP1 REVERT JUMPDEST PUSH1 0x40 MLOAD DUP1 PUSH1 0x80 ADD PUSH1 0x40 MSTORE DUP1 DUP9 DUP9 DUP1 DUP1 PUSH1 0x1F ADD PUSH1 0x20 DUP1 SWAP2 DIV MUL PUSH1 0x20 ADD PUSH1 0x40 MLOAD SWAP1 DUP2 ADD PUSH1 0x40 MSTORE DUP1 SWAP4 SWAP3 SWAP2 SWAP1 DUP2 DUP2 MSTORE PUSH1 0x20 ADD DUP4 DUP4 DUP1 DUP3 DUP5 CALLDATACOPY PUSH1 0x0 DUP2 DUP5 ADD MSTORE PUSH1 0x1F NOT PUSH1 0x1F DUP3 ADD AND SWAP1 POP DUP1 DUP4 ADD SWAP3 POP POP POP POP POP POP POP DUP2 MSTORE PUSH1 0x20 ADD DUP7 DUP7 DUP1 DUP1 PUSH1 0x1F ADD PUSH1 0x20 DUP1 SWAP2 DIV MUL PUSH1 0x20 ADD PUSH1 0x40 MLOAD SWAP1 DUP2 ADD PUSH1 0x40 MSTORE DUP1 SWAP4 SWAP3 SWAP2 SWAP1 DUP2 DUP2 MSTORE PUSH1 0x20 ADD DUP4 DUP4 DUP1 DUP3 DUP5 CALLDATACOPY PUSH1 0x0 DUP2 DUP5 ADD MSTORE PUSH1 0x1F NOT PUSH1 0x1F DUP3 ADD AND SWAP1 POP DUP1 DUP4 ADD SWAP3 POP POP POP POP POP POP POP DUP2 MSTORE PUSH1 0x20 ADD DUP5 DUP2 MSTORE PUSH1 0x20 ADD DUP4 DUP4 DUP1 DUP1 PUSH1 0x1F ADD PUSH1 0x20 DUP1 SWAP2 DIV MUL PUSH1 0x20 ADD PUSH1 0x40 MLOAD SWAP1 DUP2 ADD PUSH1 0x40 MSTORE DUP1 SWAP4 SWAP3 SWAP2 SWAP1 DUP2 DUP2 MSTORE PUSH1 0x20 ADD DUP4 DUP4 DUP1 DUP3 DUP5 CALLDATACOPY PUSH1 0x0 DUP2 DUP5 ADD MSTORE PUSH1 0x1F NOT PUSH1 0x1F DUP3 ADD AND SWAP1 POP DUP1 DUP4 ADD SWAP3 POP POP POP POP POP POP POP DUP2 MSTORE POP PUSH1 0x0 DUP9 DUP9 PUSH1 0x40 MLOAD PUSH2 0x955 SWAP3 SWAP2 SWAP1 PUSH2 0x1050 JUMP JUMPDEST SWAP1 DUP2 MSTORE PUSH1 0x20 ADD PUSH1 0x40 MLOAD DUP1 SWAP2 SUB SWAP1 KECCAK256 PUSH1 0x0 DUP3 ADD MLOAD DUP2 PUSH1 0x0 ADD SWAP1 DUP1 MLOAD SWAP1 PUSH1 0x20 ADD SWAP1 PUSH2 0x97F SWAP3 SWAP2 SWAP1 PUSH2 0xC05 JUMP JUMPDEST POP PUSH1 0x20 DUP3 ADD MLOAD DUP2 PUSH1 0x1 ADD SWAP1 DUP1 MLOAD SWAP1 PUSH1 0x20 ADD SWAP1 PUSH2 0x99C SWAP3 SWAP2 SWAP1 PUSH2 0xC05 JUMP JUMPDEST POP PUSH1 0x40 DUP3 ADD MLOAD DUP2 PUSH1 0x2 ADD SSTORE PUSH1 0x60 DUP3 ADD MLOAD DUP2 PUSH1 0x3 ADD SWAP1 DUP1 MLOAD SWAP1 PUSH1 0x20 ADD SWAP1 PUSH2 0x9C3 SWAP3 SWAP2 SWAP1 PUSH2 0xC05 JUMP JUMPDEST POP SWAP1 POP POP DUP7 DUP7 PUSH1 0x40 MLOAD PUSH2 0x9D7 SWAP3 SWAP2 SWAP1 PUSH2 0x1050 JUMP JUMPDEST PUSH1 0x40 MLOAD DUP1 SWAP2 SUB SWAP1 KECCAK256 PUSH32 0x1D6E9AC6456A38D154574DC5F64D9A9EC5CCB282574CD3A2B4D152EA8261EDC3 DUP7 DUP7 DUP7 DUP7 DUP7 PUSH1 0x40 MLOAD PUSH2 0xA16 SWAP6 SWAP5 SWAP4 SWAP3 SWAP2 SWAP1 PUSH2 0x1384 JUMP JUMPDEST PUSH1 0x40 MLOAD DUP1 SWAP2 SUB SWAP1 LOG2 POP POP POP POP POP POP POP JUMP JUMPDEST PUSH1 0x1 PUSH1 0x0 SWAP1 SLOAD SWAP1 PUSH2 0x100 EXP SWAP1 DIV PUSH20 0xFFFFFFFFFFFFFFFFFFFFFFFFFFFFFFFFFFFFFFFF AND PUSH20 0xFFFFFFFFFFFFFFFFFFFFFFFFFFFFFFFFFFFFFFFF AND CALLER PUSH20 0xFFFFFFFFFFFFFFFFFFFFFFFFFFFFFFFFFFFFFFFF AND EQ PUSH2 0xAB7 JUMPI PUSH1 0x40 MLOAD PUSH32 0x8C379A000000000000000000000000000000000000000000000000000000000 DUP2 MSTORE PUSH1 0x4 ADD PUSH2 0xAAE SWAP1 PUSH2 0x11CD JUMP JUMPDEST PUSH1 0x40 MLOAD DUP1 SWAP2 SUB SWAP1 REVERT JUMPDEST PUSH1 0x0 DUP3 DUP3 SWAP1 POP GT PUSH2 0xAFD JUMPI PUSH1 0x40 MLOAD PUSH32 0x8C379A000000000000000000000000000000000000000000000000000000000 DUP2 MSTORE PUSH1 0x4 ADD PUSH2 0xAF4 SWAP1 PUSH2 0xFF1 JUMP JUMPDEST PUSH1 0x40 MLOAD DUP1 SWAP2 SUB SWAP1 REVERT JUMPDEST PUSH1 0x0 DUP1 DUP4 DUP4 PUSH1 0x40 MLOAD PUSH2 0xB10 SWAP3 SWAP2 SWAP1 PUSH2 0x1050 JUMP JUMPDEST SWAP1 DUP2 MSTORE PUSH1 0x20 ADD PUSH1 0x40 MLOAD DUP1 SWAP2 SUB SWAP1 KECCAK256 PUSH1 0x2 ADD SLOAD GT PUSH2 0xB62 JUMPI PUSH1 0x40 MLOAD PUSH32 0x8C379A000000000000000000000000000000000000000000000000000000000 DUP2 MSTORE PUSH1 0x4 ADD PUSH2 0xB59 SWAP1 PUSH2 0x113B JUMP JUMPDEST PUSH1 0x40 MLOAD DUP1 SWAP2 SUB SWAP1 REVERT JUMPDEST PUSH1 0x0 DUP3 DUP3 PUSH1 0x40 MLOAD PUSH2 0xB74 SWAP3 SWAP2 SWAP1 PUSH2 0x1050 JUMP JUMPDEST SWAP1 DUP2 MSTORE PUSH1 0x20 ADD PUSH1 0x40 MLOAD DUP1 SWAP2 SUB SWAP1 KECCAK256 PUSH1 0x0 DUP1 DUP3 ADD PUSH1 0x0 PUSH2 0xB93 SWAP2 SWAP1 PUSH2 0xC8B JUMP JUMPDEST PUSH1 0x1 DUP3 ADD PUSH1 0x0 PUSH2 0xBA3 SWAP2 SWAP1 PUSH2 0xC8B JUMP JUMPDEST PUSH1 0x2 DUP3 ADD PUSH1 0x0 SWAP1 SSTORE PUSH1 0x3 DUP3 ADD PUSH1 0x0 PUSH2 0xBBB SWAP2 SWAP1 PUSH2 0xC8B JUMP JUMPDEST POP POP DUP2 DUP2 PUSH1 0x40 MLOAD PUSH2 0xBCD SWAP3 SWAP2 SWAP1 PUSH2 0x1050 JUMP JUMPDEST PUSH1 0x40 MLOAD DUP1 SWAP2 SUB SWAP1 KECCAK256 PUSH32 0x1E249C00741A4837800F8FB78A8A6024D8CDDF10BAC1F001258305A2644E169A PUSH1 0x40 MLOAD PUSH1 0x40 MLOAD DUP1 SWAP2 SUB SWAP1 LOG2 POP POP JUMP JUMPDEST DUP3 DUP1 SLOAD PUSH2 0xC11 SWAP1 PUSH2 0x1098 JUMP JUMPDEST SWAP1 PUSH1 0x0 MSTORE PUSH1 0x20 PUSH1 0x0 KECCAK256 SWAP1 PUSH1 0x1F ADD PUSH1 0x20 SWAP1 DIV DUP2 ADD SWAP3 DUP3 PUSH2 0xC33 JUMPI PUSH1 0x0 DUP6 SSTORE PUSH2 0xC7A JUMP JUMPDEST DUP3 PUSH1 0x1F LT PUSH2 0xC4C JUMPI DUP1 MLOAD PUSH1 0xFF NOT AND DUP4 DUP1 ADD OR DUP6 SSTORE PUSH2 0xC7A JUMP JUMPDEST DUP3 DUP1 ADD PUSH1 0x1 ADD DUP6 SSTORE DUP3 ISZERO PUSH2 0xC7A JUMPI SWAP2 DUP3 ADD JUMPDEST DUP3 DUP2 GT ISZERO PUSH2 0xC79 JUMPI DUP3 MLOAD DUP3 SSTORE SWAP2 PUSH1 0x20 ADD SWAP2 SWAP1 PUSH1 0x1 ADD SWAP1 PUSH2 0xC5E JUMP JUMPDEST JUMPDEST POP SWAP1 POP PUSH2 0xC87 SWAP2 SWAP1 PUSH2 0xCCB JUMP JUMPDEST POP SWAP1 JUMP JUMPDEST POP DUP1 SLOAD PUSH2 0xC97 SWAP1 PUSH2 0x1098 JUMP JUMPDEST PUSH1 0x0 DUP3 SSTORE DUP1 PUSH1 0x1F LT PUSH2 0xCA9 JUMPI POP PUSH2 0xCC8 JUMP JUMPDEST PUSH1 0x1F ADD PUSH1 0x20 SWAP1 DIV SWAP1 PUSH1 0x0 MSTORE PUSH1 0x20 PUSH1 0x0 KECCAK256 SWAP1 DUP2 ADD SWAP1 PUSH2 0xCC7 SWAP2 SWAP1 PUSH2 0xCCB JUMP JUMPDEST JUMPDEST POP JUMP JUMPDEST JUMPDEST DUP1 DUP3 GT ISZERO PUSH2 0xCE4 JUMPI PUSH1 0x0 DUP2 PUSH1 0x0 SWAP1 SSTORE POP PUSH1 0x1 ADD PUSH2 0xCCC JUMP JUMPDEST POP SWAP1 JUMP JUMPDEST PUSH1 0x0 DUP1 REVERT JUMPDEST PUSH1 0x0 DUP1 REVERT JUMPDEST PUSH1 0x0 DUP1 REVERT JUMPDEST PUSH1 0x0 DUP1 REVERT JUMPDEST PUSH1 0x0 DUP1 REVERT JUMPDEST PUSH1 0x0 DUP1 DUP4 PUSH1 0x1F DUP5 ADD SLT PUSH2 0xD17 JUMPI PUSH2 0xD16 PUSH2 0xCF2 JUMP JUMPDEST JUMPDEST DUP3 CALLDATALOAD SWAP1 POP PUSH8 0xFFFFFFFFFFFFFFFF DUP2 GT ISZERO PUSH2 0xD34 JUMPI PUSH2 0xD33 PUSH2 0xCF7 JUMP JUMPDEST JUMPDEST PUSH1 0x20 DUP4 ADD SWAP2 POP DUP4 PUSH1 0x1 DUP3 MUL DUP4 ADD GT ISZERO PUSH2 0xD50 JUMPI PUSH2 0xD4F PUSH2 0xCFC JUMP JUMPDEST JUMPDEST SWAP3 POP SWAP3 SWAP1 POP JUMP JUMPDEST PUSH1 0x0 DUP1 PUSH1 0x20 DUP4 DUP6 SUB SLT ISZERO PUSH2 0xD6E JUMPI PUSH2 0xD6D PUSH2 0xCE8 JUMP JUMPDEST JUMPDEST PUSH1 0x0 DUP4 ADD CALLDATALOAD PUSH8 0xFFFFFFFFFFFFFFFF DUP2 GT ISZERO PUSH2 0xD8C JUMPI PUSH2 0xD8B PUSH2 0xCED JUMP JUMPDEST JUMPDEST PUSH2 0xD98 DUP6 DUP3 DUP7 ADD PUSH2 0xD01 JUMP JUMPDEST SWAP3 POP SWAP3 POP POP SWAP3 POP SWAP3 SWAP1 POP JUMP JUMPDEST PUSH1 0x0 DUP2 MLOAD SWAP1 POP SWAP2 SWAP1 POP JUMP JUMPDEST PUSH1 0x0 DUP3 DUP3 MSTORE PUSH1 0x20 DUP3 ADD SWAP1 POP SWAP3 SWAP2 POP POP JUMP JUMPDEST PUSH1 0x0 JUMPDEST DUP4 DUP2 LT ISZERO PUSH2 0xDDE JUMPI DUP1 DUP3 ADD MLOAD DUP2 DUP5 ADD MSTORE PUSH1 0x20 DUP2 ADD SWAP1 POP PUSH2 0xDC3 JUMP JUMPDEST DUP4 DUP2 GT ISZERO PUSH2 0xDED JUMPI PUSH1 0x0 DUP5 DUP5 ADD MSTORE JUMPDEST POP POP POP POP JUMP JUMPDEST PUSH1 0x0 PUSH1 0x1F NOT PUSH1 0x1F DUP4 ADD AND SWAP1 POP SWAP2 SWAP1 POP JUMP JUMPDEST PUSH1 0x0 PUSH2 0xE0F DUP3 PUSH2 0xDA4 JUMP JUMPDEST PUSH2 0xE19 DUP2 DUP6 PUSH2 0xDAF JUMP JUMPDEST SWAP4 POP PUSH2 0xE29 DUP2 DUP6 PUSH1 0x20 DUP7 ADD PUSH2 0xDC0 JUMP JUMPDEST PUSH2 0xE32 DUP2 PUSH2 0xDF3 JUMP JUMPDEST DUP5 ADD SWAP2 POP POP SWAP3 SWAP2 POP POP JUMP JUMPDEST PUSH1 0x0 DUP2 SWAP1 POP SWAP2 SWAP1 POP JUMP JUMPDEST PUSH2 0xE50 DUP2 PUSH2 0xE3D JUMP JUMPDEST DUP3 MSTORE POP POP JUMP JUMPDEST PUSH1 0x0 PUSH1 0x80 DUP3 ADD SWAP1 POP DUP2 DUP2 SUB PUSH1 0x0 DUP4 ADD MSTORE PUSH2 0xE70 DUP2 DUP8 PUSH2 0xE04 JUMP JUMPDEST SWAP1 POP DUP2 DUP2 SUB PUSH1 0x20 DUP4 ADD MSTORE PUSH2 0xE84 DUP2 DUP7 PUSH2 0xE04 JUMP JUMPDEST SWAP1 POP PUSH2 0xE93 PUSH1 0x40 DUP4 ADD DUP6 PUSH2 0xE47 JUMP JUMPDEST DUP2 DUP2 SUB PUSH1 0x60 DUP4 ADD MSTORE PUSH2 0xEA5 DUP2 DUP5 PUSH2 0xE04 JUMP JUMPDEST SWAP1 POP SWAP6 SWAP5 POP POP POP POP POP JUMP JUMPDEST PUSH2 0xEB9 DUP2 PUSH2 0xE3D JUMP JUMPDEST DUP2 EQ PUSH2 0xEC4 JUMPI PUSH1 0x0 DUP1 REVERT JUMPDEST POP JUMP JUMPDEST PUSH1 0x0 DUP2 CALLDATALOAD SWAP1 POP PUSH2 0xED6 DUP2 PUSH2 0xEB0 JUMP JUMPDEST SWAP3 SWAP2 POP POP JUMP JUMPDEST PUSH1 0x0 DUP1 PUSH1 0x0 DUP1 PUSH1 0x0 DUP1 PUSH1 0x0 PUSH1 0x80 DUP9 DUP11 SUB SLT ISZERO PUSH2 0xEFB JUMPI PUSH2 0xEFA PUSH2 0xCE8 JUMP JUMPDEST JUMPDEST PUSH1 0x0 DUP9 ADD CALLDATALOAD PUSH8 0xFFFFFFFFFFFFFFFF DUP2 GT ISZERO PUSH2 0xF19 JUMPI PUSH2 0xF18 PUSH2 0xCED JUMP JUMPDEST JUMPDEST PUSH2 0xF25 DUP11 DUP3 DUP12 ADD PUSH2 0xD01 JUMP JUMPDEST SWAP8 POP SWAP8 POP POP PUSH1 0x20 DUP9 ADD CALLDATALOAD PUSH8 0xFFFFFFFFFFFFFFFF DUP2 GT ISZERO PUSH2 0xF48 JUMPI PUSH2 0xF47 PUSH2 0xCED JUMP JUMPDEST JUMPDEST PUSH2 0xF54 DUP11 DUP3 DUP12 ADD PUSH2 0xD01 JUMP JUMPDEST SWAP6 POP SWAP6 POP POP PUSH1 0x40 PUSH2 0xF67 DUP11 DUP3 DUP12 ADD PUSH2 0xEC7 JUMP JUMPDEST SWAP4 POP POP PUSH1 0x60 DUP9 ADD CALLDATALOAD PUSH8 0xFFFFFFFFFFFFFFFF DUP2 GT ISZERO PUSH2 0xF88 JUMPI PUSH2 0xF87 PUSH2 0xCED JUMP JUMPDEST JUMPDEST PUSH2 0xF94 DUP11 DUP3 DUP12 ADD PUSH2 0xD01 JUMP JUMPDEST SWAP3 POP SWAP3 POP POP SWAP3 SWAP6 SWAP9 SWAP2 SWAP5 SWAP8 POP SWAP3 SWAP6 POP JUMP JUMPDEST PUSH32 0x4953424E20746964616B20626F6C6568206B6F736F6E67000000000000000000 PUSH1 0x0 DUP3 ADD MSTORE POP JUMP JUMPDEST PUSH1 0x0 PUSH2 0xFDB PUSH1 0x17 DUP4 PUSH2 0xDAF JUMP JUMPDEST SWAP2 POP PUSH2 0xFE6 DUP3 PUSH2 0xFA5 JUMP JUMPDEST PUSH1 0x20 DUP3 ADD SWAP1 POP SWAP2 SWAP1 POP JUMP JUMPDEST PUSH1 0x0 PUSH1 0x20 DUP3 ADD SWAP1 POP DUP2 DUP2 SUB PUSH1 0x0 DUP4 ADD MSTORE PUSH2 0x100A DUP2 PUSH2 0xFCE JUMP JUMPDEST SWAP1 POP SWAP2 SWAP1 POP JUMP JUMPDEST PUSH1 0x0 DUP2 SWAP1 POP SWAP3 SWAP2 POP POP JUMP JUMPDEST DUP3 DUP2 DUP4 CALLDATACOPY PUSH1 0x0 DUP4 DUP4 ADD MSTORE POP POP POP JUMP JUMPDEST PUSH1 0x0 PUSH2 0x1037 DUP4 DUP6 PUSH2 0x1011 JUMP JUMPDEST SWAP4 POP PUSH2 0x1044 DUP4 DUP6 DUP5 PUSH2 0x101C JUMP JUMPDEST DUP3 DUP5 ADD SWAP1 POP SWAP4 SWAP3 POP POP POP JUMP JUMPDEST PUSH1 0x0 PUSH2 0x105D DUP3 DUP5 DUP7 PUSH2 0x102B JUMP JUMPDEST SWAP2 POP DUP2 SWAP1 POP SWAP4 SWAP3 POP POP POP JUMP JUMPDEST PUSH32 0x4E487B7100000000000000000000000000000000000000000000000000000000 PUSH1 0x0 MSTORE PUSH1 0x22 PUSH1 0x4 MSTORE PUSH1 0x24 PUSH1 0x0 REVERT JUMPDEST PUSH1 0x0 PUSH1 0x2 DUP3 DIV SWAP1 POP PUSH1 0x1 DUP3 AND DUP1 PUSH2 0x10B0 JUMPI PUSH1 0x7F DUP3 AND SWAP2 POP JUMPDEST PUSH1 0x20 DUP3 LT DUP2 SUB PUSH2 0x10C3 JUMPI PUSH2 0x10C2 PUSH2 0x1069 JUMP JUMPDEST JUMPDEST POP SWAP2 SWAP1 POP JUMP JUMPDEST PUSH32 0x42756B752064656E67616E204953424E20746572736562757420746964616B20 PUSH1 0x0 DUP3 ADD MSTORE PUSH32 0x646974656D756B616E0000000000000000000000000000000000000000000000 PUSH1 0x20 DUP3 ADD MSTORE POP JUMP JUMPDEST PUSH1 0x0 PUSH2 0x1125 PUSH1 0x29 DUP4 PUSH2 0xDAF JUMP JUMPDEST SWAP2 POP PUSH2 0x1130 DUP3 PUSH2 0x10C9 JUMP JUMPDEST PUSH1 0x40 DUP3 ADD SWAP1 POP SWAP2 SWAP1 POP JUMP JUMPDEST PUSH1 0x0 PUSH1 0x20 DUP3 ADD SWAP1 POP DUP2 DUP2 SUB PUSH1 0x0 DUP4 ADD MSTORE PUSH2 0x1154 DUP2 PUSH2 0x1118 JUMP JUMPDEST SWAP1 POP SWAP2 SWAP1 POP JUMP JUMPDEST PUSH32 0x48616E79612061646D696E2079616E67206461706174206D656C616B756B616E PUSH1 0x0 DUP3 ADD MSTORE PUSH32 0x20696E6900000000000000000000000000000000000000000000000000000000 PUSH1 0x20 DUP3 ADD MSTORE POP JUMP JUMPDEST PUSH1 0x0 PUSH2 0x11B7 PUSH1 0x24 DUP4 PUSH2 0xDAF JUMP JUMPDEST SWAP2 POP PUSH2 0x11C2 DUP3 PUSH2 0x115B JUMP JUMPDEST PUSH1 0x40 DUP3 ADD SWAP1 POP SWAP2 SWAP1 POP JUMP JUMPDEST PUSH1 0x0 PUSH1 0x20 DUP3 ADD SWAP1 POP DUP2 DUP2 SUB PUSH1 0x0 DUP4 ADD MSTORE PUSH2 0x11E6 DUP2 PUSH2 0x11AA JUMP JUMPDEST SWAP1 POP SWAP2 SWAP1 POP JUMP JUMPDEST PUSH32 0x4A7564756C20746964616B20626F6C6568206B6F736F6E670000000000000000 PUSH1 0x0 DUP3 ADD MSTORE POP JUMP JUMPDEST PUSH1 0x0 PUSH2 0x1223 PUSH1 0x18 DUP4 PUSH2 0xDAF JUMP JUMPDEST SWAP2 POP PUSH2 0x122E DUP3 PUSH2 0x11ED JUMP JUMPDEST PUSH1 0x20 DUP3 ADD SWAP1 POP SWAP2 SWAP1 POP JUMP JUMPDEST PUSH1 0x0 PUSH1 0x20 DUP3 ADD SWAP1 POP DUP2 DUP2 SUB PUSH1 0x0 DUP4 ADD MSTORE PUSH2 0x1252 DUP2 PUSH2 0x1216 JUMP JUMPDEST SWAP1 POP SWAP2 SWAP1 POP JUMP JUMPDEST PUSH32 0x546168756E206861727573206C65626968206461726920300000000000000000 PUSH1 0x0 DUP3 ADD MSTORE POP JUMP JUMPDEST PUSH1 0x0 PUSH2 0x128F PUSH1 0x18 DUP4 PUSH2 0xDAF JUMP JUMPDEST SWAP2 POP PUSH2 0x129A DUP3 PUSH2 0x1259 JUMP JUMPDEST PUSH1 0x20 DUP3 ADD SWAP1 POP SWAP2 SWAP1 POP JUMP JUMPDEST PUSH1 0x0 PUSH1 0x20 DUP3 ADD SWAP1 POP DUP2 DUP2 SUB PUSH1 0x0 DUP4 ADD MSTORE PUSH2 0x12BE DUP2 PUSH2 0x1282 JUMP JUMPDEST SWAP1 POP SWAP2 SWAP1 POP JUMP JUMPDEST PUSH32 0x42756B752064656E67616E204953424E20746572736562757420737564616820 PUSH1 0x0 DUP3 ADD MSTORE PUSH32 0x6164610000000000000000000000000000000000000000000000000000000000 PUSH1 0x20 DUP3 ADD MSTORE POP JUMP JUMPDEST PUSH1 0x0 PUSH2 0x1321 PUSH1 0x23 DUP4 PUSH2 0xDAF JUMP JUMPDEST SWAP2 POP PUSH2 0x132C DUP3 PUSH2 0x12C5 JUMP JUMPDEST PUSH1 0x40 DUP3 ADD SWAP1 POP SWAP2 SWAP1 POP JUMP JUMPDEST PUSH1 0x0 PUSH1 0x20 DUP3 ADD SWAP1 POP DUP2 DUP2 SUB PUSH1 0x0 DUP4 ADD MSTORE PUSH2 0x1350 DUP2 PUSH2 0x1314 JUMP JUMPDEST SWAP1 POP SWAP2 SWAP1 POP JUMP JUMPDEST PUSH1 0x0 PUSH2 0x1363 DUP4 DUP6 PUSH2 0xDAF JUMP JUMPDEST SWAP4 POP PUSH2 0x1370 DUP4 DUP6 DUP5 PUSH2 0x101C JUMP JUMPDEST PUSH2 0x1379 DUP4 PUSH2 0xDF3 JUMP JUMPDEST DUP5 ADD SWAP1 POP SWAP4 SWAP3 POP POP POP JUMP JUMPDEST PUSH1 0x0 PUSH1 0x60 DUP3 ADD SWAP1 POP DUP2 DUP2 SUB PUSH1 0x0 DUP4 ADD MSTORE PUSH2 0x139F DUP2 DUP8 DUP10 PUSH2 0x1357 JUMP JUMPDEST SWAP1 POP PUSH2 0x13AE PUSH1 0x20 DUP4 ADD DUP7 PUSH2 0xE47 JUMP JUMPDEST DUP2 DUP2 SUB PUSH1 0x40 DUP4 ADD MSTORE PUSH2 0x13C1 DUP2 DUP5 DUP7 PUSH2 0x1357 JUMP JUMPDEST SWAP1 POP SWAP7 SWAP6 POP POP POP POP POP POP JUMP INVALID LOG2 PUSH5 0x6970667358 0x22 SLT KECCAK256 0xD5 PUSH5 0xD3DB330ADB SGT 0x2B PUSH14 0xB8035EFCB88EBEE1BB00DD1C9CCC RETURNDATASIZE 0xCC 0x5C 0x4E 0xB3 MULMOD LT LOG2 PUSH5 0x736F6C6343 STOP ADDMOD 0xD STOP CALLER "
				},
				"gasEstimates": {
					"creation": {
						"codeDepositCost": "1024600",
						"executionCost": "25333",
						"totalCost": "1049933"
					},
					"external": {
						"addBook(string,string,uint256,string)": "infinite",
						"deleteBook(string)": "infinite",
						"getBookByISBN(string)": "infinite",
						"updateBook(string,string,uint256,string)": "infinite"
					}
				},
				"methodIdentifiers": {
					"addBook(string,string,uint256,string)": "598e1455",
					"deleteBook(string)": "f9637523",
					"getBookByISBN(string)": "233d280c",
					"updateBook(string,string,uint256,string)": "8cd35f49"
				}
			},
			"storageLayout": {
				"storage": [
					{
						"astId": 15,
						"contract": "contracts/SimpleLibrary.sol:SimpleLibrary",
						"label": "books",
						"offset": 0,
						"slot": "0",
						"type": "t_mapping(t_string_memory_ptr,t_struct(Book)10_storage)"
					},
					{
						"astId": 17,
						"contract": "contracts/SimpleLibrary.sol:SimpleLibrary",
						"label": "admin",
						"offset": 0,
						"slot": "1",
						"type": "t_address"
					}
				],
				"types": {
					"t_address": {
						"encoding": "inplace",
						"label": "address",
						"numberOfBytes": "20"
					},
					"t_mapping(t_string_memory_ptr,t_struct(Book)10_storage)": {
						"encoding": "mapping",
						"key": "t_string_memory_ptr",
						"label": "mapping(string => struct SimpleLibrary.Book)",
						"numberOfBytes": "32",
						"value": "t_struct(Book)10_storage"
					},
					"t_string_memory_ptr": {
						"encoding": "bytes",
						"label": "string",
						"numberOfBytes": "32"
					},
					"t_string_storage": {
						"encoding": "bytes",
						"label": "string",
						"numberOfBytes": "32"
					},
					"t_struct(Book)10_storage": {
						"encoding": "inplace",
						"label": "struct SimpleLibrary.Book",
						"members": [
							{
								"astId": 3,
								"contract": "contracts/SimpleLibrary.sol:SimpleLibrary",
								"label": "isbn",
								"offset": 0,
								"slot": "0",
								"type": "t_string_storage"
							},
							{
								"astId": 5,
								"contract": "contracts/SimpleLibrary.sol:SimpleLibrary",
								"label": "title",
								"offset": 0,
								"slot": "1",
								"type": "t_string_storage"
							},
							{
								"astId": 7,
								"contract": "contracts/SimpleLibrary.sol:SimpleLibrary",
								"label": "year",
								"offset": 0,
								"slot": "2",
								"type": "t_uint256"
							},
							{
								"astId": 9,
								"contract": "contracts/SimpleLibrary.sol:SimpleLibrary",
								"label": "author",
								"offset": 0,
								"slot": "3",
								"type": "t_string_storage"
							}
						],
						"numberOfBytes": "128"
					},
					"t_uint256": {
						"encoding": "inplace",
						"label": "uint256",
						"numberOfBytes": "32"
					}
				}
			},
			"userdoc": {
				"kind": "user",
				"methods": {},
				"version": 1
			}
		}
	}
}